:0200000450208A
:100000004D5A3DA800000000000020000000000044
:100010000070200000000000000000000000000050
:1000200002000000000000000000000000000000CE
:10003000524953435600000052534305000000004C
:1000400011E5178120001301E1BB2DA00543634694
:100050006500731040107300501097A20200938245
:1000600062E6131335009A9203B1020085629B8207
:10007000029F169173104010970200009382820134
:1000800073905210EF004066828000000000000074
:100090006F000007010000000000000000000000E9
:1000A0000000000000000000000000000000000050
:1000B0000000000000000000000000000000000040
:1000C0000000000000000000000000000000000030
:1000D0000000000000000000000000000000000020
:1000E0000000000000000000000000000000000010
:1000F0000000000000000000000000000000000000
:1001000073150514233C2500033105022330050235
:10011000631401000331850173150514130101DF18
:1001200006E412F016F41AF81EFCA2E0A6E4AAE80F
:10013000AEECB2F0B6F4BAF8BEFC42E146E54AE9EC
:100140004EED52F156F55AF95EFDE2E1E6E5EAE9D7
:10015000EEEDF2F1F6F5FAF9FEFD7324001022E25D
:1001600073240014006C22E87324101422E0732519
:1001700020148A85F322001403B10201EF00806E7F
:100180002A8102647310141412647310041093040F
:100190000010658C11E4EF00D05C7324001408F0AB
:1001A000A2600272A2724273E2730664A66446659C
:1001B000E6650676A6764677E6770A68AA684A690B
:1001C000EA690A7AAA7A4A7BEA7B0E6CAE6C4E6DBB
:1001D000EE6D0E7EAE7E4E7FEE7F4261730020108C
:1001E000000000000000000000000000000000000F
:1001F00000000000000000000000000000000000FF
:100200000000096573200510731030000F10000006
:100210008280833205101963B3F36200196363C7E8
:10022000630869737D33B3F262001163B3E2620065
:100230002330551027B0050027B4150027B8250036
:1002400027BC350027B0450227B4550227B8650200
:1002500027BC7502A0A1A4A5A8A9ACADB0B1B4B546
:10026000B8B9BCBD27B0050927B4150927B82509B9
:1002700027BC350927B0450B27B4550B27B8650BAC
:1002800027BC750B27B0850D27B4950D27B8A50D94
:1002900027BCB50D27B0C50F27B4D50F27B8E50F7C
:1002A00027BCF50FF322300023B055108280833233
:1002B00005101963B3F362000963635E730607B048
:1002C000050087B0850007B1050187B1850107B238
:1002D000050287B2850207B3050387B38503A02112
:1002E000A425A829AC2DB031B435B839BC3D07B828
:1002F000050887B8850807B9050987B9850907BAC8
:10030000050A87BA850A07BB050B87BB850B07BCA7
:10031000050C87BC850C07BD050D87BD850D07BE87
:10032000050E87BE850E07BF050F87BF850F83B2F9
:100330000510739032008280130101DF06E412F091
:1003400016F41AF81EFCA2E0A6E4AAE8AEECB2F09D
:10035000B6F4BAF8BEFC42E146E54AE94EED52F188
:1003600056F55AF95EFDE2E1E6E5EAE9EEEDF2F175
:10037000F6F5FAF9FEFD894473B40410E18C91C4DA
:10038000F554658C93040002458C93040010458C51
:1003900022E206E0000C22E80A85F322001403B1F1
:1003A0000201EF10C0352A81026473101414126424
:1003B0008944E18C91C4F554658C93040002458C0A
:1003C0007310041093040010658C11E4EF00703971
:1003D0007324001408F0A2600272A2724273E273E6
:1003E0000664A6644665E6650676A6764677E677F1
:1003F0000A68AA684A69EA690A7AAA7A4A7BEA7BA1
:100400000E6CAE6C4E6DEE6D0E7EAE7E4E7FEE7F50
:100410004261730020100000000000000000000096
:1004200000000000000000000000000000000000CC
:1004300000000000000000000000000000000000BC
:1004400000000000000000000000000000000000AC
:10045000000000000000000000000000000000009C
:10046000000000000000000000000000000000008C
:10047000000000000000000000000000000000007C
:10048000000000000000000000000000000000006C
:10049000000000000000000000000000000000005C
:1004A000000000000000000000000000000000004C
:1004B000000000000000000000000000000000003C
:1004C000000000000000000000000000000000002C
:1004D000000000000000000000000000000000001C
:1004E000000000000000000000000000000000000C
:1004F00000000000000000000000000000000000FC
:100500002334150023304502233455022338650275
:10051000233C750220E124E528E92CED30F134F587
:1005200038F93CFD23300509233415092338250902
:10053000233C35092330450B2334550B2338650BF9
:10054000233C750B2330850D2334950D2338A50DE1
:10055000233CB50D2330C50F2334D50F2338E50FC9
:10056000233CF50FF32500102330B5102338250068
:10057000233015001305851027300500273415009A
:1005800027382500273C35002730450227345502FF
:1005900027386502273C750220A124A528A92CAD87
:1005A00030B134B538B93CBD2730050927341509B9
:1005B00027382509273C35092730450B2734550BAB
:1005C0002738650B273C750B2730850D2734950D93
:1005D0002738A50D273CB50D2730C50F2734D50F7B
:1005E0002738E50F273CF50FF32230002330551054
:1005F00001458280000000000000000000000000B3
:100600000000557126E44AE84EEC52F056F45AF8D0
:100610005EFCE2E0E6E4EAE8EEEC22E08009A2F02B
:1006200086F4A2B8A6BC4AA14EA552A956AD5AB1AD
:100630005EB562B966BDEAA1EEA50A85EFA0104FCE
:10064000A67069618280930780033357F5001377A2
:10065000F70F19E3E117F5FB130700041D8F33555E
:10066000F500979701009387E7243E950345050021
:100670003B05A7408280977720009387A7981707AC
:1006800020001307F7C0014663ECE700970720003E
:10069000938747C0177620001306F6961D8E719A31
:1006A0008145170520001305E5BE6F80B02141117B
:1006B00022E02A8406E4EFF0DFB4634480021305ED
:1006C0001004EF004061EF00A05B13052004EF0071
:1006D000806013053004EF000060EF00003DEF1074
:1006E000C02273005010F5BF797106F422F026EC99
:1006F0004AE809CD179601001306C62B9305C010D2
:10070000179501001305052CEF700035EFF0BFF6CB
:10071000977424009384044F17042000130404B436
:10072000179901001309892B63649402179601003D
:100730001306463B97950100938545360D45EF809E
:100740007030179601001306662F9305F0084DBF11
:100750002146CA852285EF80301479C90504E9B79E
:1007600083478400034794008346A4009B97870136
:100770001B1707019B968600B99FB59F8346B4005F
:10078000B59F9B87071F82178193970660B2938658
:10079000668763F6F602179601001306A63497954E
:1007A00001009385252AB386D7400D45EF80902917
:1007B00017960100130686289305800A91B71387C0
:1007C000F7FF170680001306E683B306C700FD5542
:1007D0002297636EC402179601001306262F979581
:1007E00001009385A5290D45EF80D02517960100BE
:1007F0001306C6249305D00521B703460700FD164E
:100800007D17A307C1000346F100A380C600FD17B2
:10081000E395B7FE0145EF00E075735000189707A8
:10082000000093872787739057100145EFF03FE84A
:10083000977620009386063DE3E486F21796010042
:100840001306462A979501009385451A818E0D451A
:10085000EF80501F179601001306461E930590095E
:1008600045B52DA19357B50341113D895D8D22E01A
:1008700006E4E5471B040500631BF500B7070838CD
:10088000938717408A07804365246309A400228563
:10089000EF004048E147AA8563D98700B7070838C9
:1008A000938717401D348A0780C3A26002642E8597
:1008B000410182801971A6F48564FD14B2945EFC36
:1008C000B180B70BF0FFA2F8CEECD2E8D6E4DAE0C4
:1008D00062F866F46AF06EEC86FCCAF02A8A2E840E
:1008E000368B8124B309B600814A174C2000130CC3
:1008F0006C7193DB8B00170D2000130DAD19B70D34
:100900002000856C63C19A02E6704674A67406796D
:10091000E669466AA66A066BE27B427CA27C027D9F
:10092000E26D096182802286E2850945EF00A04ED2
:100930001319250033797901631D09026A85EF7067
:10094000A04909C503398500631E090017960100F7
:100950001306C61A9305600C179501001305851A36
:10096000EF70800F0147A2864A86E2850945EF00B5
:10097000C044B307B401637F3401A28652865A870C
:10098000CA850D453EE4EF004043A2676694669A2F
:10099000E313F4FE9B8A0A20B5B70B0020000B007E
:1009A00090018280011106EC22E826E44AE09707D4
:1009B00020009387270F171720001307A764972697
:1009C00020009386266465549754200093848463A2
:1009D00098E794EF170720001307C70B970620002E
:1009E0009386460D72141CE394E314E7A68523B89E
:1009F000070037070040930764028146014605451A
:100A0000EF00A049930764021D449316D4011739DF
:100A100020001309295F3686CA853707001009456B
:100A2000EF00A047130700029316D4014A86A6855B
:100A30000545EF00803817F4FFFF1304A45CA2857E
:100A400022859306A00217F6FFAF1306A65BEFF010
:100A50007FE697F51F009385E55A2E859306600281
:100A600017F6FFAF1306065AEFF0DFE41749200030
:100A700013094959A2864A86A6851307000205452F
:100A8000EF00A0334264E260A264CA85026997F66F
:100A90003F00938626579307600217F79FB213070C
:100AA0006756368609450561CDAE411106E4EFF083
:100AB0007FEF17F51F000335657BFD5713D74701FF
:100AC0003181798DFE175D8D73100518730000124A
:100AD0000F0030030F100000A26041017DBD0145F1
:100AE00082801D55828099C123A00500B726003061
:100AF00083A746081167130707F08127F98F7D55F3
:100B000089C703A5C6081375F50F82800947733797
:100B10000710B7260030DC52812791C5D59BDCD267
:100B200073100710828093E7A700D5BFB727003066
:100B300003A547089167938707F001257D8D33351D
:100B4000A0008280372700308327470893F7F703F8
:100B5000E5DF81252324B7088280B727003003A56D
:100B600047081375F5033335A0008280B72700309E
:100B700003A547081375F50313351500828041114D
:100B800022E006E4094473340410372700305C5334
:100B9000812799C9ED9B5CD3EF50907E73100410B0
:100BA000A26002644101828093E747005CD3FDB7F5
:100BB000411106E422E0607503450400EF00804423
:100BC000034504000264A2600146814541016F10A3
:100BD000200A011122E806EC26E464752A869705AE
:100BE00000009385850203C50400EF1060082A8485
:100BF00009E503C50400EF008047E26022854264F6
:100C0000A26405618280797126EC06F422F0372710
:100C100000301C53405332859B840700898B01248C
:100C200091CB9377240099E789471CD732E4EF6092
:100C30006000226593F7440081CB9377440089E7F5
:100C40002AE4EF50F0732265A18889C4218819E055
:100C5000EF50507EA2700274E264014545618280CB
:100C60004111014685453725003006E4EF00401369
:100C7000A2603725003001468545110541010DA2CE
:100C8000854717F71F002300F7388280011122E8FB
:100C900017F41F0013040437A285179501001305EC
:100CA000E5E706ECEF5050334146979501009385F8
:100CB000E5E70A85EF80E04E8347240089EB930740
:100CC0000003A2850A85A304F100EF50F030E26032
:100CD000426405618280797122F026EC2A8406F450
:100CE00017F51F00033585408944F3B40410A94764
:100CF0006317F400B5452AE4EFF0DFE42265A2852E
:100D0000EFF05FE473900410A27022850274E26435
:100D10004561828001114AE02A89114522E806ECEA
:100D200026E42E84EF0090211B0789FF8D4763E5A1
:100D3000E7001C6091071CE097142000938484DF77
:100D40009C6089CF17960100130646E59305F004D1
:100D500017950100130505E7EF601050A2854A853D
:100D600080E0EF00B0759C60638E87000145EF0066
:100D7000F02980609707200083B7C711171720005C
:100D8000233EF7DC11459717200023B507DAEF0063
:100D9000101BE26022854264A264026905618280C0
:100DA0008947F3B70710184193C5F5FF0127F98D5F
:100DB000D18D0CC17390071082801B08F5FF894705
:100DC00063F00703411117960100130626E193050E
:100DD000400417950100130565E206E4EF60D04773
:100DE0009377E7001378F7F299C31368070CDD5780
:100DF000BB87A702098233660601136616009B872C
:100E00007702B3D7F60093F7F71F8E07BE9590E1F0
:100E10007300D01282801B07F5FF894763F0E70259
:100E2000411117960100130666DB930520071795FD
:100E300001001305A5DC06E4EF601042DD57BB8717
:100E4000A7029B877702B357F60093F7F71F8E0729
:100E5000BE95886182801B07F5FF894763F0E70232
:100E6000411117960100130666D79305F0071795F1
:100E700001001305A5D806E4EF60103EDD57BB87DF
:100E8000A7029B877702B357F60093F7F71F8E07E9
:100E9000BE9594E17300C0128280397122F84EEC45
:100EA0003284B309E6001B06F5FF56E4BE8A9317A9
:100EB00006021B07060013D6D701979701009387F8
:100EC00067D53E9626F45AE006FC4AF052E8894778
:100ED000033B0600B384864063F3E70417960100E2
:100EE0001306C6CF9305000917950100130505D118
:100EF000EF60903622865687D2854A85EFF0FFEB69
:100F00005A94B3868400E36734FFE2704274A2749B
:100F10000279E269426AA26A026B216182802A89AF
:100F20002E8AC5B77D351B070500894763F0E702A8
:100F3000411117960100130666CA9305C00917955B
:100F400001001305A5CB06E4EF60103193170502ED
:100F500013D5D701979701009387C7CB3E950861BA
:100F60008280411106E4EF10E062A2600335851330
:100F700041018280011122E806EC26E42A84894797
:100F8000F3B7071097162000938646BA906205477C
:100F900098E26305E602170720001307A7D3970618
:100FA0002000938626AF14EB9706200023B406D2C8
:100FB00097062000938606D198E298E67390071072
:100FC0008944F3B40410170520001305A5CFEF6082
:100FD000B0607390041009ED17960100130606C562
:100FE0009305A008179501001305C5C4EF60D0262E
:100FF00000E5731005140F00F00FE2604264A26474
:1010000005618280C5476315F500737041108280C9
:10101000D5476317F5009307000273B0471082802D
:10102000E54763D5A7041B0775FE9307F00363C16B
:10103000E702B71700701B55574086071B152500A0
:101040008545938707080146BB95E5003E9589BB1A
:101050004111179601001306669E9305D008179557
:1010600001001305A5BE06E4EF60101F8280C5478E
:101070006315F500736041108280D5476317F50052
:101080009307000273A047108280E54763D5A70449
:101090001B0775FE9307F00363C1E702B7170070E3
:1010A0001B55574086071B152500054693870708E3
:1010B0003B16E60081453E95E5B1411117960100CA
:1010C0001306C6979305700B17950100130505B815
:1010D00006E4EF60701882809307002073A0471029
:1010E000736501108280411106E48947F3B7071048
:1010F000EF004020B7170070860723A0070823A23F
:101100000708B7070838938717408A07984385650B
:1011100093850580012798C317F51F0013058517D0
:10112000EF0000069D47F607138747008546938723
:10113000C71414C31107E31EF7FEB7070E00938709
:101140001720B20723A00700A260410171B7411127
:1011500037C7ADDE06E497F71F009387A713130781
:10116000F7EE970620009386E6923E8618C2910716
:10117000E39DD7FEEFF0EFEEA260094541017DABA4
:101180009307F500C19B2E959DE1411128000A8728
:101190006373A7003A8537C7ADDE41991307F7EEB1
:1011A0006394A7004101828098C39107D5BF37C7D8
:1011B000ADDE41991307F7EE6393A700828098C3D1
:1011C0009107DDBF011106EC22E826E44AE0C16781
:1011D00063FEB700179601001306C6A89305900595
:1011E00017950100130505AAEF6010073C7DAA843E
:1011F0002E84328991EB8947631CF904A2854165ED
:10120000EF806033A8FC09A83C796387B700B285FA
:10121000EF00C01FBC7CE5D3BC7C7D5585C7B38582
:101220008700C1999D8D3E85DCE0ACF8EFF05FF55D
:1012300083D724040D4593E707202391F404EF009E
:10124000E04F0145E2604264A26402690561828068
:10125000A2854165EF80201575B7011122E826E4CB
:101260001314150006ECBD47AE8405809796010067
:10127000938646A363CAA70013173400979701000B
:10128000938747C6BA979463F327101473283014D2
:1012900017960100130606C42287979501009385CF
:1012A000E5A00145EF70107AA2861796010013069B
:1012B00066C297950100938565A30145EF7090780C
:1012C0008947F3B70710179501001305A5A4A68653
:1012D00017860100130686769305500597172000A0
:1012E00023BA9784EF00F04DE2604264A2640145A6
:1012F000056182804111014697050000938525F61E
:10130000014506E4EF00D0160146970500009385DD
:1013100005F50545EF00D0150146970500009385BA
:1013200005F40945EF00D0140146970500009385A8
:1013300005F30D45EF00D013014697050000938596
:1013400005F21545EF00D012014697050000938580
:1013500005F11D45EF00D01101469705000093856A
:1013600005F01145EF00D010014697050000938568
:1013700005EF1945EF00D00F014697050000938552
:10138000C50F2145EF00D00E01469705000093855B
:1013900005ED2545EF00D00D01469705000093852A
:1013A00005EC2945EF00D00C014697050000938518
:1013B00005EB2D45EF00D00B014697050000938506
:1013C00005EA3145EF00D00A0146970500009385F4
:1013D00005E93545EF00D0090146970500009385E2
:1013E00005E83945EF00D0080146970500009385D0
:1013F00005E73D45EF00D007A260014697050000D4
:101400009385E5E54D4541016F009006411122E0CD
:1014100006E42A84287D19C98357240493F70720FA
:1014200091C789476394F502EF80C00B835724046A
:10143000A260233C040693F7F7DF2311F404233062
:10144000040823380406026441018280EF7070743E
:10145000F1BF411106E097A20100938222230E05FD
:10146000AA9283B20200E7800200826041012A86CC
:101470000D456FE07FEC011106EC22E826E44AE01E
:1014800091C9170920001309E96A833409002E84E1
:10149000638EB400179601001306C6AC930570075F
:1014A00017950100130585AEEF60005BBC69194715
:1014B000FD176362F71A179701001307A7BE8A0783
:1014C000BA979C43BA978287BC6D81EB179601004F
:1014D000130646AD9305B009E1B703B507149305AC
:1014E00085102330A900EFE09FDCE2604264A26433
:1014F0000269014505618280BC6DA47191C381E8D8
:1015000017960100130606AB9305600B51BF23B07D
:10151000B714228593858510EFE0BFCF03B504147F
:101520007DBFEF1020078347850F7D569B86F7FF11
:1015300036876399C600179601001306A6A993057E
:10154000000DB9BF9207AA97F07B10E0FC7F233013
:10155000F4103C703CE899E68337051281C71CE81B
:101560002330051283572504230CE50E93F7F7F774
:101570002311F504EF1040238DBFEF10A001833736
:1015800005121CE8233005123C6C1CE03C703CE862
:101590003C743CEC8337041093F7F7EF2330F410DE
:1015A000A9B7EF00307F7C7981CB17960100130635
:1015B00066A393058016EDB51C607CF9B717800013
:1015C000A2079C631CE08337041093F7F7EF2330E6
:1015D000F4103C6C3CE83C703CEC3C743CF03C78D7
:1015E0003CF483378512E38207F01C686146233C94
:1015F000F5127C752C709C6BA1173E85EF709040A6
:1016000008E828F0DDB5EF00F0787C7981EB1796DB
:1016100001001306269F9305201B59B51CE0833754
:10162000041093E707102330F41083378512233812
:10163000050EE38C07EA8337851381EB17960100CB
:101640001306469E9305F01BA1BD1CE883370513C6
:10165000233CF51259BDEF00F073033709008347AF
:10166000850F306B130700099B8607006379C7005D
:10167000179601001306069D9305601D15B50547D5
:101680006359D700179601001306C69E9305C01D27
:1016900001BD9060139747002A972330C71003B607
:1016A000041085272334C710230CF50E970700007C
:1016B000938767DA9CE083B7041093E7071023B0A1
:1016C000F410BC68E117BCE88357250493E70708CA
:1016D0002311F504E39B06E083378512E38707E0D7
:1016E0008337051281CB179601001306A69993053F
:1016F000F01F7DB39C682330F51284E8FDB301111F
:1017000026E4970420009384E44222E888E0AA8536
:101710002A840146014506ECEFF0FFD59C60638505
:1017200087000145EF00800EE26042648860970701
:10173000200023B10740A2640561828082808280FC
:10174000411122E006E42A84EF907073228502643E
:10175000A26041016F70105941111305000706E4A2
:10176000EF70705F19C185473CD5A260410182804E
:101770000CED0CF1014582808947F3B7071038550D
:10178000052738D5739007108280011122E826E4DE
:1017900006ECAA842E84EFA0C01C63490500886C67
:1017A000EFF09FFD9C6C01451CEC1CF0E260426474
:1017B000A26405618280AA878946F3B6061038556F
:1017C0001B05F7FFA8D7739006108280011106EC65
:1017D00022E82AE405C92E84EFF0FFFD05E5A266A4
:1017E00009CC4264E260014717060000130686F543
:1017F0009385860305616F10706B4264E2603685E5
:1018000005613DBFE260426405618280797106F442
:1018100022F026EC4AE84EE415E117F51F000335E7
:10182000656709ED179601001306C6899305A008A0
:101830001795010013058589EF60002200711DCC0A
:10184000094973390910970920009389292F83B416
:1018500009006303940281C42685EFA0401022850D
:10186000EFF09FF12285EFA0000B89C48545268506
:10187000EFF0DFF523B0890073100910A270027435
:10188000E2644269A269014545618280011122E852
:1018900026E44AE006EC17F41F000334A45FAA8490
:1018A0002E89EFF07FED1C7022852330F90004F0C3
:1018B0004264E260A2640269056189BF011122E805
:1018C00026E406EC17F41F000334C45CAA840870F5
:1018D000EFF07FEE04F022854264E260A2640561CD
:1018E00035B7011106EC22E826E42A84EFA0A00710
:1018F000AA84086C8145EFF07FEDE260233C040090
:1019000042642685A26405618280397122F817F449
:101910001F001304A43F854726F413068016814553
:101920009704200093848422228506FC4AF04EEC22
:101930002380F400EF7000798D472300F40417F939
:101940001F001309295197070000938747FC1CF8D3
:101950001CFC7D468947979501009385A5804A85A3
:101960002311F404EF70F0038347040497F91F0078
:101970009389C93823B0290113974700978701003D
:101980009387477FBA9703C787009C63218B19C34E
:101990005864BA9717F71F00233E0736986318E07C
:1019A0003DEF80E380E79707200023B9871A894736
:1019B0002C000A852380F400EF904025A265026583
:1019C0001709200013094918EF70B02F2C000A8561
:1019D000EF908025A2650265EF70B0399147232012
:1019E000F9000547832709008127635DF702032576
:1019F000090001250E05EF7010369707200023BB64
:101A0000A714631E050A178601001306A66D930529
:101A1000801F178501001305E56DEF60E00300E707
:101A200080E351B7832709009B9717002320F90013
:101A300055BF1C6817F51F001305452DDC6323B047
:101A40003703EF90604017F51F001305252CEF10AA
:101A5000503417F51F001305652BEF200028186878
:101A60008D472380F4002308F70017072000232B5D
:101A7000070CEF00F024EF00401DEFA0C00FEF00B7
:101A8000E01CEF10F06AEF105017EF00B043EF00CA
:101A9000B012EF009014EF10817CEFF04FEBEF40AD
:101AA000C05491472380F400EF20403D635D050260
:101AB00017860100130686689305A02999BF834500
:101AC00024048327090000E117F51F0013050524EE
:101AD000EF208015E35F05F4178601001306866288
:101AE000930570203DB795472380F400EF00800DEB
:101AF00063590500178601001306C6659305302B50
:101B000009BF99472380F400EF00F01FEF90803E5B
:101B1000F5BF397106FC22F826F402E0EF205116D9
:101B20002800EF60A062056493044006130404C01B
:101B300017870200130707EE854617860100130674
:101B4000666C978501009385656C17850100130508
:101B5000E56CA304910022ECEFD03038635E050001
:101B6000178601001306866C930580161785010001
:101B70001305C56CEF50506E2800EF60205D130810
:101B8000810081470147814601468A85178501000A
:101B90001305456C22ECA3049100EF1001782A8410
:101BA0002800EF60C06063498000178601001306BB
:101BB000E66B9305B0175DBFE2704274A2740145F5
:101BC0002161828041110546978501009385856AD0
:101BD000178501001305856A06E4EF10306A054693
:101BE0009785010093858562178501001305856936
:101BF000EF10D068EF10D03DEF10D0550567AA88E0
:101C0000014897070000938707F113070780814673
:101C10001306000F89451785010013052567EF108E
:101C2000A023634EA00017860100130626679305C4
:101C3000601B1785010013056560EF50F061EF1020
:101C4000B060A260014541018280828097F71F0049
:101C50009387472617F71F001307C77797060000DB
:101C60009386260994E3C107E39EE7FE6FF0AFC7B2
:101C70009307100563E2A704011122E826E406ECAD
:101C80002A848944F3B4041081E9EFF0AFB7014628
:101C9000970500009385E50517F51F0013058521BD
:101CA00012042A940CE010E473900410E260426481
:101CB000A264014505618280295582809307100541
:101CC0001B07050063EFA7009316070293D7C60111
:101CD00017F71F001307071E3E971C6399C3106771
:101CE00082870146970700009387A700D5BF41115F
:101CF00006E4AA868947F3B7071017860100130682
:101D0000665D978501009385E5590D45EF70805319
:101D100017860100130686D293056003178501001C
:101D20001305C559EF5050535D71A2E026FC4AF8E7
:101D30004EF486E42A84AE84179901001309898A37
:101D4000978901009389895A63F98400A660066423
:101D5000E2744279A27961618280014763739400E1
:101D6000184093064400814763F396005C40930655
:101D70008400014863F49600032884009306C4009D
:101D8000814863F496008328C40093060401014649
:101D900063F39600104893064401814563F396006F
:101DA0004C4893068401014563F39600084C930662
:101DB000C401014363F496000323C4012AE82EE41E
:101DC00032E0A2861AEC4A86CE850145EF70804744
:101DD0001304040295BF797122F026EC4AE8AE8420
:101DE00032893684179601001306C680AA86978525
:101DF000010093852553014506F44EE4BA89EF703E
:101E00006044CA86178601001306C67E97850100C6
:101E1000938545520145EF70E042A2861786010086
:101E20001306467D978501009385C5510145EF70E6
:101E3000604185CCA686178601001306A67B978590
:101E400001009385A5510145EF70C03F938704FEC3
:101E500063E32701BE84B305890026850274A2705E
:101E6000E2644269A2694561C1B533043441330576
:101E70002401B385A900DDB7297122FA1306800376
:101E80002A848145281906FE26F64AF24EEE52EAC9
:101E900056E65AE2DEFDE2F902F9EF70A022228551
:101EA000EF906044247889C8630B05109307803E47
:101EB0003305F502B35495029309010B1306000490
:101EC000CE852285EF20402713090109CA85228586
:101ED00013060002EF00A06C9305C0024A85EF7064
:101EE000202B09C5930700022300F5001C68145439
:101EF0007D5791C398470356240497850100938525
:101F000065718347C40213758601AA9503B805005D
:101F1000937536001395350097850100938585717B
:101F2000AA951376061083B80500130A000519E276
:101F3000130AD0022285832A4409032B0409833B18
:101F40000408033C04073AE546E1C2FCBEF8B6F4D7
:101F5000EF90603929461303F0318A686678C677B6
:101F60002A67A67613048414CEECA2E82AF862F459
:101F70005EF05AEC56E84AE452E00145B3D5C4029B
:101F800033F6C402B334930093840402A6E42EFC17
:101F9000978501009385853DB2E017860100130601
:101FA0006662EF70202AF2705274B2741279F2698C
:101FB000526AB26A126BEE7B4E7C31618280814440
:101FC000E5BD2971DEFD970B2000938BABB683B77F
:101FD0000B0022FA52EA56E6E2F906FE26F64AF22B
:101FE0004EEE5AE2E6F5EAF1AA8A2E8C328A36845F
:101FF0006387071A9704200083B444B683B90401A9
:10200000638C090083D72404898B639F071803A579
:102010008900EF006040AA89094B733B0B10EF0069
:10202000204A6315041817F51F001305A53AEFE0C1
:102030002FCD17F41F001304E43983B70B000549B3
:1020400081EB03D924041379390079191339190064
:102050000C101345190026F022F456FCE2C052F889
:10206000EF00A0261945EFF06FEDEF409048A80073
:10207000EF50B0239308510C130821099307D1079F
:102080001307D105B40017860200130626E49785CE
:1020900001009385A5330145EF70C01A63160A004D
:1020A000178A0200130A0A9763960A00978A0200A9
:1020B000938A4A96138884149788010093888830FD
:1020C00063840900938889149C7C5687D28617867E
:1020D00002001306A6DF978501009385A5313EE037
:1020E0000145E287EF7000162285EF80F0632285BC
:1020F000EF8050632A84EF80905483BA040803BCB5
:10210000040703BD84122A8AB38C8A016368A40081
:10211000856793870780AA97636FF4186368A401A3
:102120008567938707C0EA97636BF418636454016B
:1021300063689405178601001306C64C9785010055
:102140009385C52F0145EF70E00F85490144EF905D
:10215000C01C85662A87A2859386068052861785CD
:10216000010013052531EFF01FC703B50B00EF8009
:10217000705B2A846366550563749505639409044E
:102180002DC02685EF9020162A87E2865686A285E6
:10219000178501001305852EEFF0FFC399A097F472
:1021A0001F0083B424CF99BD8149BDB5130600211A
:1021B000A28517F51F001305E521EF70A004B5BD3A
:1021C00001448549814585660147938606C06A8634
:1021D000178501001305051FEFF0FFBF5DF0E392C7
:1021E00009FAEF4010316306090AEF900013AA873D
:1021F000014411C51304803E330485022D801786E7
:1022000001001306263D978501009385A52701450A
:102210003EECEF702003EF8090422948B37804032E
:102220001307F03133378700E267130707023AE0FC
:102230000567AA86130707801786010013068639EB
:10224000978501009385852C014533580403EF6081
:10225000707F814517050000130545C2EF00601F20
:10226000EF4030290C100945EF0020068145094553
:10227000EF00C00C1D45EFF06FCC1305A00FEF4031
:1022800050551D45EFF0AFCB1305A00FEF40705434
:10229000D5B7EF00402773100B10F2705274B27470
:1022A0001279F269526AB26A126BEE7B4E7CAE7C96
:1022B0000E7D316182808149E31B04E81DB7E30292
:1022C00004F2A28581490144FDBD797122F026EC1A
:1022D0004AE806F44EE4AA842E89094473340410B3
:1022E000170520000335058811E973100410A2704A
:1022F0000274E2644269A269456182801C6183398B
:1023000085004A86A68582974E85F9BF8946F3B631
:10231000061017072000130767851C6391E71CE56B
:1023200008E3739006108280E38DA7FE0C49904B62
:10233000E347B6FE138787009C67CDB7797122F01B
:1023400026EC4AE806F44EE4AA842E890944733444
:102350000410170520000335658111E9731004107E
:10236000A2700274E2644269A269456182801C61C4
:10237000833985004A86A68582974E85F9BF01116B
:1023800022E82A841305001C26E406ECAE84EF70D4
:10239000A01911CD1307051C1C602308950000E54A
:1023A0001CE188E708E013058503E317E5FEE2601A
:1023B0004264A264056182804111814517E51F00D6
:1023C0001305C5D606E4EFF09FFBA260894517E52B
:1023D0001F001305A5D641015DB74111130500206B
:1023E00006E4EF70601405C517E71F00130707D652
:1023F000146393050520AA8794E398E79CE6138667
:102400000704BE866398C5001305051C08E3A26097
:1024100041018280B287CDB72A878946F3B606107C
:1024200017F51F000335057315C16340070297F7C1
:102430001F0083A76771FD37F98F81278E07AA9741
:10244000886309C51C556383E70001457390061036
:102450008280397126F44AF04EEC06FC22F852E8EC
:1024600056E42A89AE898944F3B404100144EF008C
:10247000200517FA1F00130A2A6D97FA1F00938A86
:102480006A6D83270A001B0704008127634FF7004A
:10249000EF00600773900410E2704274A274027936
:1024A000E269426AA26A2161828083B70A00131737
:1024B0003400BA97886319C1CE8502990504D1B753
:1024C00017F71F000337079D0DCF97F71F0083B73E
:1024D000676685EB831747049306E00763D0F6022F
:1024E0004111178601001306E6169305300F178574
:1024F00001001305A51706E4EF50005685272312A7
:10250000F7040145828001114AE017F91F00130901
:10251000699822E80334090006EC26E421CC97F7F9
:102520001F0083B72761B9E78944F3B40410831708
:1025300044046349F0022312040497F71F0083B791
:102540006794A1E3835724042147E18B6392E70258
:102550003C4499EF83370900638C87009307800C14
:102560003CC439A0FD37C217C1932312F404E1D74C
:1025700073900410E2604264A2640269014505613F
:102580008280EF20401D5DDD03350900A285EF80CC
:1025900030434DBF17F51F000335C58F8280797119
:1025A00022F026EC4AE806F42A84086DAE843289CB
:1025B00001C52C00EFF08FAD8947F3B707108346B4
:1025C00004041547639DE602546403C72600118B7B
:1025D0001DC7944E73900710178601001306860AD4
:1025E000CA852685EF50F03C1C6C81C72265EFF050
:1025F000EFACA2700274E26442694561828073901C
:102600000710834704044A86268513973700978767
:1026100001009387A710BA978C63EF609038E9B7F1
:10262000011122E82A84130580033385A50226E4DC
:102630004AE006ECAE843289EF60106F15C1AA87BC
:10264000814681241060238827033E8723B007003A
:102650009387870301EE18E018E48526E3C496FE0D
:10266000E2604264A264026905618280106418E23B
:10267000E5B7011122E82A84130580023385A502FB
:1026800026E44AE006ECAE843289EF60F06915C1B9
:10269000AA87814681241060238027033E8723B0C8
:1026A00007009387870201EE18E018E48526E3C44B
:1026B00096FEE2604264A264026905618280106451
:1026C00018E2E5B741110146914517F51F001305C2
:1026D00065F206E497F71F0023B607F097F71F008F
:1026E00023B607F097F71F0023B607F097F71F00F0
:1026F00023B607F097F71F0023B607F097F71F00E0
:1027000023B607F097F71F0023BE07F097F71F00C7
:1027100023BE07F097F71F0023BE07EE97F71F00B1
:1027200023BE07EEEFF0DFEF09ED17860100130679
:1027300066039305000D1785010013052505EF506D
:10274000A0310946A14517F51F001305A5EBEFF0D1
:102750003FED01E9178601001306C6049305600DDD
:10276000D9BF0146914517F51F001305A5EBEFF002
:102770005FF001E9178601001306C6059305C00D39
:102780005DBF0946A14517F51F001305A5E8EFF049
:102790005FEE01E917860100130646069305200E39
:1027A00059BFA26041018280397106FC26F44AF0CB
:1027B00097E41F0083B4046E22F8EFF07FD02685E3
:1027C000EF20203E2C082AEC138604092E85EF50BA
:1027D000F0062808EF50100C7D5911C9EFF0BFD258
:1027E0000145E2704274A274027921618280280856
:1027F000EF00000FAA85630425032AE42808EF50A0
:102800001000A2652685EF0080022A8409C993057D
:1028100085002685EF0040242285EF004007280828
:10282000EF50500769D5EFF01FCE05455DBF011190
:1028300006EC22E826E41C6989EF178601001306DE
:1028400066349305C00317850100130525FEEF507C
:10285000A0208944F3B40410C06F01450DC00347A4
:1028600084006319B7009385870901E92E85EF502D
:10287000A05631A022850060D5B7EF504057739025
:102880000410E26022854264A264056182800347ED
:102890000502AA870DE38946F3B6061017F71F0055
:1028A000130747D823300500106315E21CE31CE72B
:1028B0007390061082808946631ED700F3B6061017
:1028C00017F71F00130707D523300500F1BF106766
:1028D0001CE2F1BF85476314F7006F60B04082804F
:1028E000011122E826E44AE006ECAA840544130913
:1028F0000004A2852685EF50E07A09E50524E31A55
:1029000024FF7D54E26022854264A264026905616D
:102910008280797106F422F026EC4AE84EE452E017
:1029200001C504692A8989EC17860100130686F21D
:1029300093055010178501001305C5F4EF50C01121
:1029400083C60500FD47AE891B8706FE63FCE702D0
:10295000094773370710C86C09C503468500631122
:10296000D6027310071019CD0274A270E264426996
:10297000026ACE85A2696146210545616F609008B3
:102980000861D9BF97F71F0083B7C71AADCF17F5F6
:102990001F00130525C9EF5020442A8409E917F5C3
:1029A0001F00130525C7EF5020432A8459C5130A79
:1029B00084006146CE855285EF60D0048947F3B725
:1029C000071023300400D86C35E7C0ECC0F07390DA
:1029D00007108345840003350901EF20A0242DC58D
:1029E0001C4D93F70708ADC31C71D28501461CEC42
:1029F0001C65034584000274A270E2644269A26906
:102A0000026A45618287094A733A0A1017F51F0066
:102A1000130545C1EF50403C2A8473100A1041F958
:102A200013058002EF6050302A8401C985472300D6
:102A3000F502B5BFD87000E351BF17860100130639
:102A4000E6E593058012FDB5A2700274E264426966
:102A5000A269026A45618280397106FC22F826F477
:102A60004AF04EEC52E856E45AE019C12E8989ED3D
:102A700017860100130606E393051015178501005C
:102A8000130545E0EF40507D835725042A8493F7D2
:102A900007106392072283C50500014A6389050E6A
:102AA0001305050917EB1F00033BCB3EEF50805F7A
:102AB0008547AA8A6308F5008357240493F707081B
:102AC000638B070E8944F3B4041003470404994749
:102AD0006313F70A9309840963990A086146CA8552
:102AE0001305040CEF6000724E85EF50C0533C702C
:102AF000D5EB18641C6045EF97E61F0023B4F63A47
:102B0000CDEB97E71F0023B3E73A233004002334CB
:102B100004002285EF10503409C5DA852285EF8044
:102B2000206A73900410014A63900A06CA852285C0
:102B3000EFF03FDE8944F3B40410034704049547E3
:102B40006316F70091452285EF10F07A834704045D
:102B50000547E53793F7F70F6366F7009145228540
:102B6000EF10E074739004101DA0834509004E859A
:102B7000EF50405325F573900410CA852285EFF07D
:102B80005FD9014AE3880AFA63D30A00295AE2703E
:102B90004274A2740279E269A26A026B5285426AA7
:102BA0002161828013050405EF00D02299B71CE350
:102BB00081BF98E799BFEFF0BF90086801E91786D9
:102BC0000100130626C9930560044DBD8345090025
:102BD000EF204005AA8925C51C65B5C3EF20A007D5
:102BE000AA84515A29CD83B789001CE583B709010E
:102BF0001CE983A7890193F7070291E78345090040
:102C00004105EF50003E6146CA8513858401EF609F
:102C1000605F83B7090289499CF4F3B9091023B0B6
:102C200004005C70D1E344F044F497050000938500
:102C3000850C2285EF80604673900910014AEFF001
:102C40009F8C8944F3B40410034704049947631A22
:102C5000F7046146CA851305040CEF60A05A1305FA
:102C60008409EF50403C3C7089C713050405EF0010
:102C7000701618641C6005EF97E61F0023B4F62257
:102C80008DEB97E71F0023B3E722233004002334A2
:102C900004002285EF10501C09C5DA852285EF80DB
:102CA000205273900410F9BD5C7484E3B5BF1CE33B
:102CB000C1BF98E7D9BF755AD9BD011122E826E4F2
:102CC00006ECAA842E84EFF02FF511C9086901CD16
:102CD000A2854264E260A26405616F10803E268591
:102CE000EF10A017EDB7E2604264A264755505616C
:102CF0008280757122E1D2F02A84D6ECDAE8DEE433
:102D0000E2E006E5A6FCCAF8CEF4EF405058032BEB
:102D10000500831A6404930B040A130A0409130CB4
:102D2000040B0949733909108357240493F70704E6
:102D30008DC773100910EF409055232065012313B0
:102D40005405AA600A64E6744679A679067AE66AAA
:102D5000466BA66B066C496182805E85EF50C007AA
:102D6000AA8461D98357240493E707042311F40448
:102D7000233005005C78CDEB48F85C6813860401CD
:102D80002C0044FC08083EE4EF50402E83C584012B
:102D90000808EF50C022C2670947938584015CE8A8
:102DA000835724048D8B6384E70861462810EF6005
:102DB00060457310091083C5840188648146301012
:102DC000EF80604E8949F3B9091083572404100835
:102DD000D28593F7F7FB2311F4042808EF50402A1B
:102DE0003008D2850810EF50202730082C0032859B
:102DF000EF50C02410102C085285EF5020270339C3
:102E0000040B630B0900631C99029C605CF85C7CFA
:102E100063949700233C040A73900910EFF0DF9845
:102E20002685EF105069F5BD5C7C88E3B9B7731057
:102E300009109C6403C584010146829761B78337FA
:102E4000090063969700E2854A85EF40507A03397E
:102E50000900E31609FEC9B71D71A6E4AA8413058B
:102E60008016CAE086ECA2E82E8932FC36F83AF4E5
:102E70003EF042EC46E8EF60006E21C1C268626835
:102E800082772277C276627623112505A68502E035
:102E90002A84EF006004AA84635C05002285EF6049
:102EA0006064E660466406692685A66425618280C2
:102EB00022850454EF006047EDB7D154DDB73E885A
:102EC0008148BA873687B2862E86894571B7BA8718
:102ED0003687B2860146E5B71D71CAE052F85EEC4E
:102EE00086ECA2E8A6E44EFC56F45AF062E866E4EA
:102EF0002E8A83452504BE8B854713F93500631E52
:102F0000F900178601001306E69C93054006178515
:102F100001001305259EEF4030348947AA84328B87
:102F2000B6893A8CC28AC68C6314F900233C05002A
:102F30002685EF00704F2A846343050A8868E6857A
:102F4000EF0030222A84634D0502867505462685EA
:102F5000EF0090762A846345050293150C02819157
:102F6000638609022E862685CE85EF80E02A2A8494
:102F7000634A05002685EF00C0612A846359050273
:102F8000638D09002685EF00305D91A84A8626856D
:102F9000EFE04FA32A84E35F05FCBC7CE5D78947BB
:102FA000E312F9FE89452685EFE04FC6E1BF4A8767
:102FB000DE86170600001306463BDA852685EF00FD
:102FC00000212A84E34E05FA5686D2852685EF0035
:102FD00080202A84E34605FA2685EF001050E6603B
:102FE00022854664A6640669E279427AA27A027B67
:102FF000E26B426CA26C2561828018651C611DE346
:1030000097E61F0023B8F6E685E397E71F0023B78E
:10301000E7E68355250423300500233405008D8918
:103020006F1050051CE3CDB798E7E5B71D71A2E816
:10303000A6E4CAE04EFC52F856F45EEC86EC5AF078
:1030400062E866E46AE02A84AE84328AB68A3A8903
:1030500097EB1F0083BB0BE48949F3B9091017FBF9
:103060001F00130B2BAE17FD1F00130DADAE97FC09
:103070001F00938C6CAD094C83270B0083350D002A
:103080008146852703A70C00012763CCE60203A530
:103090000C001B1515000E05EF60E04B2A8769E157
:1030A000739009105155E6604664A6640669E2799A
:1030B000427AA27A027BE26B426CA26C026D2561BD
:1030C00082803E876343F000054783A70C001B0600
:1030D0000700FD37F18F81278E07AE9788632DEDAE
:1030E00080E310D42320CB0073900910835724046D
:1030F0001377390093F4F40F13F947FE3369E900AD
:103100009307800C1369890023069402A306940296
:1031100023384403233C5403231124053CC483B7C0
:103120000B092285230004045CE8EF70F051EFF0F6
:103130002FB997E71F009387E7D3986323340400E0
:1031400018E0986351E380E380E791472300F4049B
:10315000EFF06FBB014581BF9B07170085261DB7A8
:1031600083A70C0003350D0081469B97170023A011
:10317000FC0083A70C001B860600BBC787036347C0
:10318000F6002330ED00EF60E035FDB59397360093
:10319000AA978C6383A70C0085061B86F7FF9C55B6
:1031A000F18F81278E07BA97906309CE17760100B9
:1031B0001306C6759305F009177501001305057709
:1031C000EF4090098CE375B700E780E3BDBFB9BD60
:1031D00005476FF0BFE55971CAE8D2E056FC86F4A6
:1031E000A2F0A6ECCEE45AF85EF462F066EC2A8A0D
:1031F000B28A177901001309E97891C12E89130465
:103200008A14130BF901CA8483C904008504638DF1
:1032100009004E85EF40700619C19309F00523009F
:1032200034010504E39264FF230004004A85EF5053
:10323000D07A13041500814493091010014B63895F
:103240000A0093973400D69788631B8B040015E11E
:103250009B042B008E04B38584005285EF70905F31
:10326000AA8929E117760100130646709305C02448
:1032700039A8EF50907683370A0705052A94636EC4
:10328000F400177601001306E66B9305002317750B
:1032900001001305A569EF40207C8504E39334FB0E
:1032A000655581A0AA9404E14A85EF501073AA8B5A
:1032B0002286CA852685EF50D06E1B851B00338C75
:1032C000A400098C938C8900814B9B870B0063C7FA
:1032D000670323BC04FE83370A010145DC6323B086
:1032E0003703A6700674E6644669A669066AE27A40
:1032F000427BA27B027CE26C6561828093973B00FB
:1033000023B08C01D6978C63850BA10C2E852EE4FF
:10331000EF50B06CA2652A8922866285EF507068F2
:103320001B0519002A9C098C4DB7797122F026ECF7
:1033300006F42A848944F3B4041097E51F0083B58A
:1033400065B52EE4EF10404A2285EF10E030A2650B
:1033500001C52285EF70D06673900410A2700274CC
:10336000E26445618280411106E497E61F0083B65E
:1033700066B203D7260485470D8B6314F7021776D0
:10338000010013062661930520051775010013053A
:103390006563EF40606C8507639B07010545EF009F
:1033A00040039C6A13081010DC6390738547939563
:1033B0003700B2958C611B850700F1FD9C7E894624
:1033C0006315D700B2858297D9BFAA853E85EF7075
:1033D000106B011126E497E41F0083B4A4AB22E82C
:1033E0001374F50F268506ECEF00F0392685A285CB
:1033F000EF10B0212285EF70B02097E71F0023B3B4
:10340000072497E71F0023B3072497E71F0093873C
:10341000672497E61F009386E667054617E71F00B7
:10342000130747220C632386C70023B0070085E1FA
:103430001CE31CE793878708E396D7FE97E71F00F6
:1034400023BA071E97E71F0023BA071E82800C6766
:103450009CE1C5B7011122E826E406EC4AE0AA8403
:1034600009447334041017E51F000335A51C09E94E
:1034700073100410E2604264A264026905618280F4
:103480001C490339050063949700EF00A0024A85A8
:10349000F9BF01CD09477337071097E71F0083B7BE
:1034A000671989E7731007103E858280E38CA7FEB9
:1034B0009C63C5BF411106E422E0EFF09FFDEF00E1
:1034C0002002635D05002A843B048040EF40205CBD
:1034D00000C17D55A2600264410182800145DDBFCB
:1034E0005DC5797122F006F426EC4AE84EE4834784
:1034F000D50005472A84637DF700FD37A306F50054
:103500000545A2700274E2644269A2694561828045
:103510006105EF00200C09497339091097E91F0074
:103520009389491183B4090091CC631F94021C60F4
:1035300023B0F90083B789006316F40097E71F00F2
:1035400023BE070E8347C400858B85CF233004003C
:1035500097E71F009387070F98630DE380E380E7E9
:1035600073100910014571BF9C606316F400CE858D
:103570002685EF40D0078460E5F8E9B7986700E357
:10358000F9BF731009102285EF50D075E1BF29559E
:1035900082804111C14522E006E42A84EF70902B1D
:1035A00005C93C7C638EA70017760100130606430D
:1035B0009305C0031775010013054544EF40C0494A
:1035C00018680145586398E3A26002644101828053
:1035D0005155DDBF011126E406EC22E88944F3B41D
:1035E000041029CD1C692A84B1CB97E71F0083B74B
:1035F00067500145B1C7639987021C6089C7984F1E
:10360000144C359F98CF05C597E51F009385854ECF
:10361000EF40E07D23380400014573900410E26020
:103620004264A264056182803E859C63E1B717E530
:103630001F001305254CEF40207AE9BF2955F1BF43
:10364000177601001306063D9305F0051775010076
:103650001305C53CEF404040011122E806EC094447
:103660007334041097E71F009387C7422330050087
:103670009867946318E58DEA88E388E76C0017E59E
:103680001F0013052542EF40D011B24763D8070051
:1036900017E51F0013050541EF10003C73100410DF
:1036A000E26042640561828008E3C1BF5D71A2E00F
:1036B00026FC4AF84EF452F056EC86E4AA842E8496
:1036C000B28A368A3A898949F3B909109C7199C33B
:1036D000EF0060252330540323344403BDE4631C0E
:1036E00009042330040097E71F009387A73A9867DF
:1036F000946318E49DEE80E36C0017E51F0013054A
:10370000653A80E7EF40F009B24763D8070017E554
:103710001F0013052539EF10203473900910A6609F
:1037200006644279A279027AE26A2685E2746161CE
:10373000828000E3D1B7A28617060000130606F2C6
:10374000CA852285EF10102CC9BFA954F9B75D7145
:1037500086E4A2E026FC4AF82E844EF452F056ECA1
:10376000086401468145EF5060602A890868014677
:103770008145EF50A05FAA84094473340410894A3C
:10378000130A0901930905014A85EF406068AA8779
:1037900009E55285EF10402AC5BF987375D723B04D
:1037A000070288779CE473100410029773B40A1020
:1037B00023B404006C004E85EF40A07EB2471B8707
:1037C00017003AC6E3D207FC4E85EF10E028FDB79C
:1037D000197186FCA2F8A6F4CAF0EFE07FCE01468C
:1037E000814517E51F001305652EEF40A0731309EF
:1037F000010217E41F001304E429A28617760100D2
:1038000013064623930500024A85EF40901A840070
:1038100097E61F009386862A1776010013068621F5
:10382000930500022685EF40D018056638009706FC
:103830000000938606F2130606809305400617756E
:1038400001001305A51F4AE426E802ECEFF02FE87B
:10385000634EA00017760100130646A4930570106E
:10386000177501001305051EEF40001F08D4EFE097
:103870009FC9E6704674A674067901450961828085
:10388000011106EC22E826E489ED17760100130603
:10389000E61C93059004177501001305A51DEF4064
:1038A000A01B2E848944F3B404109C719DCF9C69A5
:1038B00081CB2E85EFF01FD223300402014515A8DD
:1038C00098659C6119EF97E61F0023B5F61C81EF00
:1038D00097E71F0023B4E71C2330040023340400BF
:1038E000E1BF1CE3EDB798E7C5BF8547630AF50064
:1038F000795573900410E2604264A264056182808D
:1039000097E71F0093870719987BE393E5FE80579D
:10391000EF10C07BE30EA4FC17E51F001305051B89
:10392000EF10801161BF19E17D5599BF2955828043
:10393000411106E4EF70002AA260410119A897E73F
:103940001F0083A72723852717E71F002324F722BB
:103950008280828097D71F0083B7C7539C6BC8773C
:1039600082805D7186E4A2E026FC4AF84EF452F0B3
:1039700056EC5AE809ED1776010013062611930557
:103980007004177501001305E511EF40E00C2E8956
:10399000AA898144EFE0DFB2814A63010908139BE1
:1039A0003400B3076901806315E823B8990A814A96
:1039B000A5C4138A14000E0AD2854E85EF001003A9
:1039C0002A84D15A31C9611A2A9B529923300B009B
:1039D0007D5AFD1463964401814A3DA88504C1B710
:1039E000033589FF6119EF50407F13061500B2853A
:1039F0004E8532E4EF00807F93973400A29788E3EE
:103A0000226615EDBE848C64A10495E5A2854E85E1
:103A1000EF00F0050144D15A23B4890AEFE0BFAEAC
:103A2000A6600664E2744279A279027A426B5685F6
:103A3000E26A616182804E85EF007003E9B78335E9
:103A40000900EF50007671B7411106E497D71F00C7
:103A500083B74744886B09ED177601001306060605
:103A60009305D0031775010013054506EF30D07E8E
:103A7000EF10B00BA260014541018280397106FC54
:103A800022F826F44AF04EEC52E856E4630205129E
:103A90002A892E8AB28481C583C7050081EFB9C8FF
:103AA0004274E270A274E269426AA26A4A850279AB
:103AB000216109A2EFE0DFA097D71F0083B7873D00
:103AC000806B09EC177601001306C60B93051007EF
:103AD0001775010013050501EF3010785C7485CB74
:103AE000CA852285EF10F009AA856342050289EC98
:103AF000EFE07FA1E27042740279E269426AA26A51
:103B00002685A274216182802285EF10300D5878BD
:103B1000FD5785836319F70017760100130606FE2B
:103B20009305B00875B74A85EF50206BAA8452857B
:103B3000EF50A06AA99C8924A6852285EF00006B1E
:103B4000AA8905C14C7495C5833A040B2285138656
:103B50002A000E06EF00806D1DE1CE852285EF0064
:103B60000071EFE05F9A3144EF30707200C1FD5494
:103B700051B7C1452285EF00606765D1814A9397AF
:103B80003A00AA9723B0370123B40700850AA68517
:103B900048F45287CA86177601001306A6F8233820
:103BA000540B4E85EF40E060EFE0FF95814499B7FC
:103BB00059445DBF011106EC22E826E497D71F00A7
:103BC00083B7472D846B89EC17760100130686FBBB
:103BD0009305200417750100130545F5EF30D067F4
:103BE0002A8409C98347050091C79305D003EF5084
:103BF000205A19C9EF30B069D9471CC17D55E26020
:103C00004264A26405618280EFE09F8BA2852685D5
:103C1000EF102077AA85634505002685EF10007C0C
:103C2000EFE07F8E0145E1BF797106F422F026ECCA
:103C30004AE84EE401C51C692A8989CF177601003C
:103C4000130646F09305600817750100130505F18A
:103C5000EF30906013050011AE89EF50D00F2A8429
:103C6000D15435C193F9390089476398F9008347E6
:103C7000050193E727002308F5004145EF50D00ADE
:103C800008EC31C991471305040C23388900230936
:103C9000F400EF8080072285EF104045AA84635925
:103CA0000500086CEF5010042285EF50B00321A8E6
:103CB00013050405EF30106F014681451305040319
:103CC000EF4040268144A27002744269A2692685B1
:103CD000E26445618280D154C1BF011106EC22E843
:103CE00026E401C50069AA8409EC177601001306D1
:103CF00066E89305100F17750100130525E6EF30F0
:103D0000B055835525041305040D9BD515008589F1
:103D1000EF5070169C54186C1CC31CC48547A30834
:103D2000F4008947F3B7071017E71F00130707E5EB
:103D3000146314E000E373900710E2604264A2642D
:103D4000056182800347850219E783470501918B4E
:103D500099C36F5020798280011106EC22E826E495
:103D600009ED176601001306E6359305F011177586
:103D700001001305A5E1EF30304E0069AA8469C83F
:103D80000C5501470945834714019B06070063C78B
:103D9000F604CDEF2285EF10603E2285EF00307BE8
:103DA0002285EF0050061305040CEF701078228571
:103DB000EF10A0571305040DEF50100E8946F3B60F
:103DC000061097E51F00938565DB9C610146A1CB3A
:103DD00098636310F40429E298E181A01C6C131627
:103DE0002700B2979C436394B7027338051083474A
:103DF0001401146C8A07B69783A7C7FFB2969CC2BA
:103E000083471401FD37A308F40073100810050759
:103E10009DBF3E86BA8765BF18E223B00700739046
:103E20000610086C09C5EF50E06B233C04000870D5
:103E300009C5EFF0A0512330040283470401228515
:103E400093E747002308F400EFF0DFEF23B8040006
:103E5000E2604264A264056182802A878947F3B7E1
:103E6000071017E51F00033565D101C5144563959B
:103E7000E6007390071082800861C5BF41118D452F
:103E800017650100130585C922E006E4EF90303D77
:103E90002A8409ED8545EF80601D89450145EF8045
:103EA000E01CA26022850264410182806354A0006C
:103EB000EF80E0242554F5B7011126E406EC22E852
:103EC000AE840C6989ED177601001306A6CB930525
:103ED0007004177501001305E5CCEF30F0378357F8
:103EE000250405472A848D8B6399E7001776010026
:103EF000130646AA93059004E9BF97D71F0083B71E
:103F000067F9886B01E9177601001306A6CB9305C4
:103F1000E004C1B7B2869385050C26861305050C0F
:103F2000EF80C002634B050089C822854264E260CD
:103F3000A685A26405616F104001E2604264A2643C
:103F4000056182808125638EA502411122E006E48D
:103F50002A84EFE06FCC11CD8357250409675D8F6C
:103F60002311E5048D8B054722856399E700EF0057
:103F70006040A2600264014541018280EF00B060B0
:103F8000CDBF01458280011106EC22E826E41C69C0
:103F900089EF17760100130666B29305D0091775ED
:103FA0000100130525C3EF30302B83C7070181447F
:103FB000A18B95E72A84EFE0AFD018689705000041
:103FC000938585F88347070193E787002308F70067
:103FD00010540868EF10A04AAA84EFE0CFD2E26044
:103FE00042642685A26405618280011122E806EC04
:103FF00026E44AE02E84EFE02FC209C51C69AA849A
:1040000091C309EC177601001306C6BE930540055F
:1040100017750100130585C2EF3010241C6491E36D
:1040200008E41C601385840983C50700EF408007FE
:1040300085472A89630CF5001C601385040983C534
:104040000700EF40200621C101493DA01C6C0C6017
:1040500091C703C70500C547E310F7FE2685EFE0CB
:10406000BF9F634E05041C7004ECF9D71C6003C7A6
:104070000700C547E302F7FCE2604264A2644A8598
:104080000269056182801C70E1F31C6CE38E97FA73
:104090001C6891E304E81C60886883C50700EF0092
:1040A00070385DD10C602685EFE01F9B2A89E345BF
:1040B00005FC0339840104F03339200175BF2A89D6
:1040C00065BF5D7186E4A2E026FC19C1AE8489ED6E
:1040D00017760100130606B89305D00C177501007A
:1040E0001305C5B5EF3050172A842EE402E802EC20
:1040F00002F002F4EFE0CFBC22853000970500000B
:104100009385E5EEEF10A0372A84634F0500827790
:1041100081EFA27791EB626501E54265595409C5CB
:10412000A685EFE07F932A84EFE0EFBDA6602285AD
:104130000664E274616182805D7152F086E4A2E0FF
:1041400026FC4AF84EF456EC2E8A11C51C692A89C1
:1041500099C3DC6389EF23000A000145A660066469
:10416000E2744279A279027AE26A61618280086D22
:10417000328401C52C00EFD06FF183572904054725
:104180008D8B639BE7020337091783368903177604
:1041900001001306A6ADA2855285EF408001AA84D6
:1041A0008337890181C72265EFD04FF11305F4FFF2
:1041B000E3F6A4FA26855DB7833709018144977A2F
:1041C0000100938A2AABDC6383B90702A10983B695
:1041D0000900F9D6E3F684FCB305944033059A0050
:1041E0005686EF30107DA109AA94D5B7AA872E85EF
:1041F00095E797D71F0083B7E7C999C39C6B99EFE1
:10420000411117760100130666A79305C0031775C1
:104210000100130525A806E4EF30100483C7070149
:10422000898B99C36F5040306F508017AA872E85B5
:10423000B28595E797D71F0083B7C7C599C39C6B15
:1042400099EF411117760100130646A39305D00399
:1042500017750100130585A506E4EF30E07F83C7DD
:104260000701898B99C36F50002E6F50A018AA8741
:104270002E8595E797D71F0083B7C7C199C39C6B5D
:1042800099EF4111177601001306469F930590039D
:1042900017750100130505A306E4EF30E07B83C723
:1042A0000701898B99C36F50E0236F50800E011175
:1042B00006EC22E85C652E8697D51F0083B585BD88
:1042C00089EF17760100130666A19305D0041775D0
:1042D0000100130525A1EF302078834605041D4712
:1042E0002A84639EE604039727026349E000177659
:1042F00001001306A6ED93053005D1BF7D3723914C
:10430000E7021465186185EA98E305EB94E723302A
:10431000040023340400233404082313C404228536
:104320002EE4EF006033A26531C122854264E26071
:1043300005616F60F06898E2C9BF14E7C9BF0397D1
:1043400007026349E00017760100130626EC930587
:104350009005B5BF7D372390E7021465186189E6A3
:1043600098EB61FF94EF65B798E2E5BFE2604264C5
:104370000561828009E90D4582800D45E260426455
:10438000A26405618280011122E826E406EC2A84F9
:10439000EFE08F88AA8475D18357250413F707109F
:1043A00069FF8D8B0547638EE700177601001306C2
:1043B000E6949305D004177501001305A596EF3018
:1043C000A069EF00D0460DE597D71F0083B787ACF3
:1043D000639597007D55EF30701C2285FD55EF00E9
:1043E000E00622854264E260A26405616F007048C5
:1043F000014569B7411122E006E42E843479CC45A9
:10440000014799CAD0469C626396C5020DEB95E7B9
:1044100023380506233C050613058402EF00C04C33
:1044200013050401EF00404C22850264A2604101A3
:104430006F50400B3687BE86E9B73CF9F1BF89E77C
:1044400038FD23300700C9BF1CE3F9B75D71A2E056
:1044500056EC86E426FC4AF84EF452F02A84AE8AE2
:10446000EFD09FFB11C5833905012A89639E09009E
:10447000177601001306068D9305500C1775010081
:104480001305458DEF30405D138A09055285EF30E5
:10449000C079A28530004E85EF00A00F2A8405C99F
:1044A0005285EF30607E8357290405640D047D8CAE
:1044B0007D141334140033048040A6602285066402
:1044C000E2744279A279027AE26A61618280A2642E
:1044D00085474C002385F40023B054052300F918C8
:1044E000138904014A85EF30D02B15ED1246635C29
:1044F000060293848402052681452685EF309022AA
:104500004A85EF10A00709E54C004A85EF30702975
:10451000924763D307006DD52685EF00E0515285A1
:10452000EF30807659BFA26583C79500EDDB4E85DD
:10453000EFF05FECEDB7011126E4AA8413058004C7
:1045400022E806EC2E84EF50000108E011CD9C54C7
:10455000014681455CC54105EF30D01C18606357AA
:1045600005003A85EF401078594529A89C6823BC7E
:10457000E41623300700B87F146011EBB4FB186019
:104580000145B8FFE2604264A2640561828014E3E1
:10459000FDB7411106E422E0AA8709ED1766010084
:1045A0001306465E9305B008176501001305857C68
:1045B000EF30804ABC7B2E8532841CE01C6095CF96
:1045C000D8476317A7000145A260026441018280B9
:1045D0009C63E5B783D6270405670D07758F85466D
:1045E000631BD70083C7071889EFA2850264A26006
:1045F00041016FF05FF45945C1BFEFD0FFE1AA87D9
:1046000071F90D45D1B7011122E806EC26E42A84A0
:1046100015E9176601001306E6569305E0031765D2
:10462000010013052577EF3020439C601385840239
:104630003CF8EF00602B13850401EF00E02A26858B
:10464000EF40506A2478F5F0130504054264E260F7
:10465000A26405616F300058011122E826E406ECDF
:1046600097D41F0083B40483839744042A84635738
:10467000F00203C7C4028347C5026371F70297D5EE
:104680001F0093852580EF00200685472300F40452
:104690000145E2604264A2640561828097C51F0003
:1046A0009385457F2285EF0020041DC9839744042C
:1046B00081E71C54634EF000176601001306866FF5
:1046C00093052006176501001305C571EF30C0384A
:1046D0008D472300F4041C6009472380E70455BF7D
:1046E00089472300F40475B70347C50219EF411148
:1046F00017660100130606719305A00417650100F3
:104700001305C57106E4EF3020359C619DCB83C64F
:10471000C70263FAE600986705E31CE1233405004D
:1047200088E788E13DA09C63D5B7233005001CE5F0
:1047300088E388E5014582801CE118E508E388E705
:10474000D5BF9C65FDF3233005002334050088E1C7
:1047500088E50545828017C61F001306A6731862F8
:1047600083174704C1E397C71F0083B7A7710145AB
:1047700089458D4891EB97C71F0023B5077097C7F0
:104780001F0023B50770828003B8070083C6C702E5
:104790000343C7026371D302146795EE98E323B411
:1047A00007001CE72300B7041CE22380170505451A
:1047B0003E87C287C1B7186361FF411117660100C8
:1047C0001306C66793057007176501001305856713
:1047D00006E4EF30602898E394E79CE21CE723802E
:1047E000B704F9B7014582808346050491471B87CA
:1047F000C6FF63F0E70241111766010013068666E3
:104800009305E003176501001305456A06E4EF30E0
:10481000A02418651C6139EB1396460097660100C9
:1048200093864695B296906283C68600A18A99C205
:10483000546536961CE28DEF834705049396470036
:104840009767010093870793B697946383C78700A0
:10485000A18B99C35C65BE9698E62330050023348E
:104860000500233405082300050482801CE3E1B71A
:1048700098E7E5B7797126EC06F422F02EE481443E
:1048800031CD2A840855EFE0FFBC1C54A2658DC7CA
:1048900009477337071097D61F0083A6E62AFD360F
:1048A000F58F812797D61F0083B6C62A8E07B69745
:1048B00023B00700731007103C7C81C72285EFC02E
:1048C000FFB42285EF60F0432285EFD08F81AA8468
:1048D0002285EFF06FC82285EF40D040A2700274AD
:1048E0002685E2644561828019ED41111766010059
:1048F0001306C65D9305D003176501001305855E99
:1049000006E4EF306015835705009B9707019BD79E
:10491000074163C5070085472310F50001458280E4
:10492000797106F422F026EC4AE84EE452E011C513
:1049300097D71F0083B7072089CF1766010013069A
:10494000E65B9305F004176501001305A55EEF30E3
:10495000A01017CA1F00130AEA5317D71F000347F6
:10496000E71E954703340A00AA8463FCE700EF10B2
:10497000400701C9176601001306465D930500054F
:10498000D9B709497339091083D704009B970701E8
:104990009BD707416358F00283D704000145FD37D8
:1049A0009B9707019BD707412390F4002334040809
:1049B00073100910A2700274E2644269A269026A6B
:1049C000456182805C6481CB176601001306065C3A
:1049D000930550078DBF83D70400FD379B970701D0
:1049E0009BD707412390F4001C5444E42313040490
:1049F0006349F000176601001306465B9305000A41
:104A000099B785452285EF00B0409547AA892300D4
:104A1000F404938584002285EFF01FCD638709009D
:104A200003350A00A285EF60A0798317640401456D
:104A3000C1D33B05F040ADBF011122E826E406ECEE
:104A40002A84F1542285EFF0BFEDE30D95FEE2607C
:104A50004264A26405618280011106EC22E826E42A
:104A60004AE009ED17660100130646469305F00477
:104A70001765010013050555EF20107E8944F3B436
:104A800004108357050021677D179B9607019BD66D
:104A90000641639CE60073900410130550FBE2602E
:104AA0004264A26402690561828085279B970701A1
:104AB0009BD707412310F500634BF0022105EF302F
:104AC00020352A840DC53C7117C91F000339893C64
:104AD00089C713050505EFE0FFAF233404082285DD
:104AE000EFF09FB709C5CA852285EF60606D7390AE
:104AF000041001456DB7397122F84AF04EEC06FCFE
:104B000026F444652A84086D2E8997C91F0083B94D
:104B1000693801C52C00EFC07FD789C883D704004E
:104B20009B9707019BD7074163CE070017660100DB
:104B30001306C64A93058005176501001305854CC9
:104B4000EF20907183D7040085279B9707019BD79F
:104B500007412390F40018641C6021E39CE4A1E366
:104B600098E81C6C233004002334040081C72265BC
:104B7000EFC0DFD423340408231324052285EFF08B
:104B8000BFAD09C5CE852285EF608063E2704274B7
:104B9000A2740279E269216182801CE3C9B798E7B7
:104BA000C9B7797106F422F026EC09E517C51F0094
:104BB0000335452E006909EC17660100130686FCD3
:104BC0009305B0051765010013054545EF20D06832
:104BD0000A85EF3040458944F3B40410406C09E87D
:104BE00073900410A27002740265E26445618280D1
:104BF000834584000A85EF30803C0060CDB70DC14D
:104C0000411122E02A84014506E4EFF09FF9935711
:104C1000050208C05CC0A2600264014541018280B7
:104C20007D558280011122E806EC26E42A8401CD1C
:104C3000AE84EFD0FF88406409C483478402639A3E
:104C40009700EFD05F8CE26022854264A264056128
:104C500082800060D5B7411106E422E097D71F009B
:104C600083B747ED8DC317D51F001305A598EF3007
:104C7000A01615ED0264A26017D51F0013058598D4
:104C800041016F30601509447334041017D51F00BB
:104C900013054596EF3040147310041009E913050D
:104CA0008003EF40700801C585472308F502A26024
:104CB00002644101828003470503AA870DE3894608
:104CC000F3B6061017D71F001307C792233005004D
:104CD000106315E21CE31CE773900610828089467E
:104CE000631ED700F3B6061017D71F00130787916E
:104CF00023300500F1BF10671CE2F1BF8547631444
:104D0000F7006F40207E8280011122E826E406EC45
:104D10002A849304050A2685EF30000C1DE19304D4
:104D2000040B2685EF30400B05E113050409EF3035
:104D30004030130584094264E260A26405616F306B
:104D4000802EEFF05FF7C1BFEFF0FFF6D9BF011182
:104D500022E826E406EC2A84930485082685EF30B1
:104D6000A00701ED130484092285EF30E00609E96C
:104D7000E2604264A26405618280EF009068F9BF3E
:104D8000EFD0FFB0D5B7011122E826E406EC97C4B6
:104D90001F0083B424102A8411E180542285EFD0AF
:104DA000AFE739C98357250405478D8B639EE7001C
:104DB0001766010013060628930510061765010003
:104DC0001305452AEF20504903D7240489460D8B4B
:104DD0006304D7006389D7029C546395870001451B
:104DE000EFE02FDFEF00A024814701E92285426434
:104DF000E260A2640561B5ACF557E2604264A2646A
:104E00003E8505618280CD57CDBF8357250493F73A
:104E10000710C9E3011122E82A8426E44AE006ECDF
:104E20002E89EF00400704689DE02285EFE0DFF265
:104E30002285EFF07FED8357240493E707102311B9
:104E4000F404E2604264A2640269056182808357CF
:104E5000240405478D8B6388E700BC6489C71B1950
:104E6000890023A0270103C714018547E31FF7FA30
:104E700023B40404A38404021389040383D7040322
:104E80009B9707019BD70741E3D107FA4A85EFF0CB
:104E9000BFBCEDB78280411106E422E02A84EF0016
:104EA00020712285EF00E0472285EF001050228517
:104EB0000264A26041016F008064797106F422F0FF
:104EC00026EC89ED176601001306461B93052009A1
:104ED000176501001305051BEF20103883C7050077
:104EE000AA842E8493F7070291CBEFD0EFD219C595
:104EF0005C402328F5081C44232AF5088347040056
:104F000013F78700918B85CF834714003EC409CFE8
:104F10008345240030002685EF0070210145A270F2
:104F20000274E264456182802C002685EF00A07740
:104F3000E34705FE83470400A18BEDD3D1BF79DFA2
:104F40002C000145EF005017E5B7397122F826F41F
:104F50004AF052E856E45AE006FC4EEC2A89AE8448
:104F60000144094A8D4A054B99C0635D0400E27013
:104F700022854274A2740279E269426AA26A026BD3
:104F8000216182809C44638C470163815703639055
:104F90006707CC444A85EF7080118460F1B7904870
:104FA000CC444A85EF70A00B2A84C5BFCC444A8507
:104FB000EF70E00FD4489048938584014A85EF80D4
:104FC00050282A84E34B05FCD0446304C502AA851B
:104FD0004A85EF70C008AA876353A00081479B8968
:104FE0000700A2854A85EF70800C4E847DB7295456
:104FF0006DB701445DB709478D46054801E5134586
:10500000160082801C456388E7006384D700639A9A
:1050100007015C4529A05C456387B7001C4963868E
:10502000B7000861E1BF05458280014582804111DA
:1050300022E006E42A84EF00B01E8947F3B7071088
:10504000835624040967758F0DE303478500937623
:10505000170081CE136747002304E5007390071003
:105060000545A260026441018280739007100145EA
:10507000CDBF011126E406EC22E84AE08944F3B4EE
:105080000410EFD06FB915C9034905042A8481457E
:10509000EF000058230024057390041081452285F9
:1050A000EFF0BFD68355240422854264E260A264F7
:1050B00002698D8905616FF0EFFB73900410E26067
:1050C0004264A264026975550561828097C71F001A
:1050D00083B747DC014581CB83C607040D4775556F
:1050E0006393E600885782806FF05FFE79719305C5
:1050F000802926EC06F422F04AE84EE4AA84EF0068
:10510000E03D3DC92A84EF20F02913058402C0E068
:10511000EF2050291304840723380420233C042063
:105120008144B1490D49130584FDEF20F03B9307FD
:1051300084041CF41CFC3CE0B33790001307840883
:10514000850704F018F8230534092314F4082330E4
:1051500004002334040023380400233C04008504A5
:105160001304040CE39124FD0145A2700274E2646F
:105170004269A269456182805155C5BF797106F4C3
:1051800022F026EC406109EC17660100130606F1D7
:1051900093053003176501001305C5F1EF20D00B0F
:1051A000AA8413058402EF20F02213050405EF20E2
:1051B000303413050411EF20B0331305041DEF2024
:1051C0003033233804288335842881ED2285EF206D
:1051D0007020A2850274A2702685E26445616FF09A
:1051E0000F899C61138585002EE42334F428EF2079
:1051F000303083C70401A265898BF1D72685EFF093
:105200000F87D1B751CD797126EC06F422F04AE828
:105210004EE452E0B284A95745CA2E8963C6050AF6
:105220002A84368A8949F3B909101C6999C3EFE0C9
:105230006FBA04E8233444018544630409009B04E5
:10524000190097D71F009387E78A906301EA2330FC
:105250000400986339E380E380E79DA03285B2863D
:1052600001478C4E2D9F635407008C6299E563CCF7
:10527000E4028C6291E5999CD9BF3685AE86D5B79C
:10528000884D299F3685AE86DDB717D61F001306D9
:105290006686A285EF20F03125A0986700E36DBFF8
:1052A000A9573E8582808C4E0D9F999C3B879540E7
:1052B00098CEE31CD6FC10E0986311E380E780E30E
:1052C00004CC739009108147A2700274E2644269B1
:1052D000A269026A3E8545618280411122E017D4AD
:1052E0001F00130424811C6006E489CB984F7D378E
:1052F00098CF1C6081C79C4F6356F000A260026487
:10530000410182802285EF20302D1C6089C7984F93
:10531000144D359F98CF1C69233805000865829786
:10532000C9BF130505056FE0EFAA011106EC22E8DD
:1053300026E409ED1756010013064675930520046F
:1053400017650100130585D8EF2000715C752A846C
:10535000814489EF2334040A2338040AE26042645A
:10536000A264056182802285EFE07FF05C74338760
:1053700097000C63A104E5F9BE852285EFE03FEFBD
:10538000D1BF11C199ED411117660100130686D5F1
:105390009305C005176501001305C5D706E4EF2086
:1053A000A06B5475795591CA01459308D0039317A2
:1053B0003500B6979C638DE3795582800507850794
:1053C0000348070003C60700E30AC8FE6314080089
:1053D000E30516FF0505E1BF2E87DDB7011106ECD9
:1053E00022E826E44AE001C9AE8463C605005C7980
:1053F0002A8463CEF50017660100130626D39305B1
:10540000000417650100130565D6EF20E0645C75A4
:1054100013993500CA978C63EFE07FE55C78587488
:10542000FD175CF8639397024A9723300700507882
:105430004C7405EA2285EFE09FE32334040AE2601E
:105440004264A2640269056182808E07BA979C63F8
:105450004A971CE358785C740E07BA9723B007008C
:10546000F9B705060E062285EFE05FDC48F461F926
:1054700017660100130606D19305100659B7797116
:1054800006F422F026EC4AE84EE452E009ED175605
:1054900001001306266F930500041765010013052C
:1054A00065D0EF20605B03441501AA842E897D340A
:1054B000B2890A04715A63144401014501A89C6C25
:1054C000CE85A29788437114029975D5A270027493
:1054D000E2644269A269026A45618280011122E8A0
:1054E00006EC2EE4EFE09FD02A8409C522668145B0
:1054F000EF30503DE26022854264056182804111B7
:1055000006E4034705049D465C656319D70289C715
:1055100003972702634EE00017660100130686CA50
:105520009305A00417650100130545CCEF20C05278
:105530007D372391E702A26041018280A146E31CEE
:10554000D7FE89C7039707026349E0001766010089
:10555000130646CB93054005F1B77D372390E7024C
:10556000D9BF411106E481E9EFF00FCDA2603B0500
:10557000A04041018280EF00C04FCDBF411106E441
:1055800009ED17660100130666949305700617650A
:1055900001001305A5C9EF20204CEFF0EFCBAA873F
:1055A000014563D407003B05F040A26041018280C1
:1055B000011106EC22E826E409ED17660100130646
:1055C000E6C893050004176501001305A5C9EF207F
:1055D000A0482A848944EFC0BFEE7C6C99E74264FE
:1055E000E260A26405616FC01FF2F3B70410686C3B
:1055F000186178EC2330050073900710834745024B
:10560000210593E72700230EF500EFF03FF7F1B7F0
:10561000411106E422E0034705049317470017579A
:105620000100130727B53E9783478700146313F7DC
:10563000870019C35865BA96186501440DE7918B28
:105640009DC31C6189EF17660100130626C49305EC
:105650004005176501001305E5C4EF20E03F0D4745
:105660002380E704054418651C6115EB9CE295EB6B
:1056700098E623300500233405002300050497C76E
:105680001F0083B7278099C791C5EFF0CF8C498C55
:105690001374F40FA26022850264410182801CE32E
:1056A000F9B798E7F9B7011122E806EC26E4295486
:1056B00085C92A84AE84EFC0BFE017B51F0003354B
:1056C000657D09C81C55638787002285EFC0DFD43C
:1056D000755409C58C40EF00C0032A84EFC0BFE2B7
:1056E000E26022854264A26405618280411122E069
:1056F00006E4EFF05FFB2A84635805003B0480401A
:10570000EF20E03800C17D54A2602285026441018F
:1057100082801B87F5FF9307E00F63EDE71839716F
:1057200022F826F44EEC06FC4AF052E856E42A84AD
:10573000AE848949F3B90910834705040947638C8E
:10574000E70A0D47639CE71003390500631E090053
:1057500017660100130686B39305600817650100FC
:10576000130545B6EF20402F8347C90263CEB70427
:1057700017BA1F00130A0A72833A0A0083974A0471
:105780006357F00497BA1F00938ACA6F054A814590
:105790004A85EFF0FFE709CD17660100130686B4CE
:1057A0009305A009176501001305C5B1EF20C02AB4
:1057B0004A85D685EFE05FF32300490503390400ED
:1057C0008347C902E3C5F4FC2306940209A8EF004D
:1057D000602511C503350A00D685EF50701E739001
:1057E0000910E2704274A2740279E269426AA26A04
:1057F00001452161828017B91F001309A969033A85
:1058000009008347CA0263D9B700EF00A02161D91C
:1058100003350900D285D1B78145EFF07FDF09CD8F
:1058200017660100130606AC9305601117650100A9
:10583000130545A9EF204022230694022285EFE0BC
:10584000BFE151DD176601001306C6A993052012BA
:1058500017650100130505A7EF2000209B860700B0
:1058600017570100130707919207BA978C6383C7F4
:105870008700A18B99C35C65BE95939746003E97C0
:105880008347870093F4F40F858B9DDF18641C60B9
:1058900011EF9CE191EF98E52330040023340400DC
:1058A000230694022285EFE03FE415BF1CE3DDB739
:1058B00098E7DDB729558280011126E406EC22E83D
:1058C000A95499CDAA842E8497B71F0083B7875C0B
:1058D00001C59857631CA70083C7C70281441CC039
:1058E000E26042642685A26405618280EFC05FBDEC
:1058F0002685EFC07FB2F55409C58347C5028144B0
:105900001CC0EFC05FC0E9BF411122E006E4EFF028
:10591000BFFA2A84635805003B048040EF2020171B
:1059200000C17D54A26022850264410182807971A8
:1059300026EC06F422F04AE84EE48947A95463EFC6
:10594000B7041C421307E00FB289FD37A9546367FF
:10595000F7042E8919E1EFF06FF7EFC0FFAB2A844F
:10596000F5540DCDEFC0DFB50947733707108357E6
:105970002404137919009D9BC217C1932311F404C9
:1059800063060902232404047310071083A5090089
:105990002285EFF01FD8AA84EFC0FFB6A270027470
:1059A0004269A2692685E2644561828093E78700A7
:1059B0002311F4049307800C3CC4F9B7411122E091
:1059C00006E4EFF0DFF62A84635805003B048040CC
:1059D000EF20E00B00C17D54A260228502644101EA
:1059E000828097B71F0083B7E74A9DE717C71F005C
:1059F0000347C7158547054563F3E702411117665D
:105A000001001306A68F9305100417650100130506
:105A1000659206E4EF204004885713251500828024
:105A2000287D828001114AE02E89814506EC22E81A
:105A300026E4AA84EFF0DFBD2A842386240326858A
:105A4000EFE09FC1B344A40093F4F40F6309A400F2
:105A500097B71F0083B7074399C3EFE0DFCFE2603A
:105A6000426402692685A264056182802E86814592
:105A700021A02E868145C9A81D7186ECA2E8A6E466
:105A8000CAE04EFC52F856F419C1B28409EE17660A
:105A900001001306A68B9305300617650100130558
:105AA000E58DEF10707B97C71F0083B7A70881CBE8
:105AB000176601001306868E93054006F9BFAA8972
:105AC000AE8A17B91F000339E93C094A733A0A1034
:105AD000EF00A0382A8405C59864B7D79A3B93870E
