:0200000450208A
:100000004D5A3DA800000000000020000000000044
:100010000070200000000000000000000000000050
:1000200002000000000000000000000000000000CE
:10003000524953435600000052534305000000004C
:1000400011E5178120001301E1BB2DA00543634694
:100050006500731040107300501097920200938255
:10006000E263131335009A9203B1020085629B820A
:10007000029F169173104010970200009382820134
:1000800073905210EF004066828000000000000074
:100090006F000007010000000000000000000000E9
:1000A0000000000000000000000000000000000050
:1000B0000000000000000000000000000000000040
:1000C0000000000000000000000000000000000030
:1000D0000000000000000000000000000000000020
:1000E0000000000000000000000000000000000010
:1000F0000000000000000000000000000000000000
:1001000073150514233C2500033105022330050235
:10011000631401000331850173150514130101DF18
:1001200006E412F016F41AF81EFCA2E0A6E4AAE80F
:10013000AEECB2F0B6F4BAF8BEFC42E146E54AE9EC
:100140004EED52F156F55AF95EFDE2E1E6E5EAE9D7
:10015000EEEDF2F1F6F5FAF9FEFD7324001022E25D
:1001600073240014006C22E87324101422E0732519
:1001700020148A85F322001403B10201EF00806E7F
:100180002A8102647310141412647310041093040F
:100190000010658C11E4EF00905B7324001408F0EC
:1001A000A2600272A2724273E2730664A66446659C
:1001B000E6650676A6764677E6770A68AA684A690B
:1001C000EA690A7AAA7A4A7BEA7B0E6CAE6C4E6DBB
:1001D000EE6D0E7EAE7E4E7FEE7F4261730020108C
:1001E000000000000000000000000000000000000F
:1001F00000000000000000000000000000000000FF
:100200000000096573200510731030000F10000006
:100210008280833205101963B3F36200196363C7E8
:10022000630869737D33B3F262001163B3E2620065
:100230002330551027B0050027B4150027B8250036
:1002400027BC350027B0450227B4550227B8650200
:1002500027BC7502A0A1A4A5A8A9ACADB0B1B4B546
:10026000B8B9BCBD27B0050927B4150927B82509B9
:1002700027BC350927B0450B27B4550B27B8650BAC
:1002800027BC750B27B0850D27B4950D27B8A50D94
:1002900027BCB50D27B0C50F27B4D50F27B8E50F7C
:1002A00027BCF50FF322300023B055108280833233
:1002B00005101963B3F362000963635E730607B048
:1002C000050087B0850007B1050187B1850107B238
:1002D000050287B2850207B3050387B38503A02112
:1002E000A425A829AC2DB031B435B839BC3D07B828
:1002F000050887B8850807B9050987B9850907BAC8
:10030000050A87BA850A07BB050B87BB850B07BCA7
:10031000050C87BC850C07BD050D87BD850D07BE87
:10032000050E87BE850E07BF050F87BF850F83B2F9
:100330000510739032008280130101DF06E412F091
:1003400016F41AF81EFCA2E0A6E4AAE8AEECB2F09D
:10035000B6F4BAF8BEFC42E146E54AE94EED52F188
:1003600056F55AF95EFDE2E1E6E5EAE9EEEDF2F175
:10037000F6F5FAF9FEFD894473B40410E18C91C4DA
:10038000F554658C93040002458C93040010458C51
:1003900022E206E0000C22E80A85F322001403B1F1
:1003A0000201EF1060332A81026473101414126486
:1003B0008944E18C91C4F554658C93040002458C0A
:1003C0007310041093040010658C11E4EF003038B2
:1003D0007324001408F0A2600272A2724273E273E6
:1003E0000664A6644665E6650676A6764677E677F1
:1003F0000A68AA684A69EA690A7AAA7A4A7BEA7BA1
:100400000E6CAE6C4E6DEE6D0E7EAE7E4E7FEE7F50
:100410004261730020100000000000000000000096
:1004200000000000000000000000000000000000CC
:1004300000000000000000000000000000000000BC
:1004400000000000000000000000000000000000AC
:10045000000000000000000000000000000000009C
:10046000000000000000000000000000000000008C
:10047000000000000000000000000000000000007C
:10048000000000000000000000000000000000006C
:10049000000000000000000000000000000000005C
:1004A000000000000000000000000000000000004C
:1004B000000000000000000000000000000000003C
:1004C000000000000000000000000000000000002C
:1004D000000000000000000000000000000000001C
:1004E000000000000000000000000000000000000C
:1004F00000000000000000000000000000000000FC
:100500002334150023304502233455022338650275
:10051000233C750220E124E528E92CED30F134F587
:1005200038F93CFD23300509233415092338250902
:10053000233C35092330450B2334550B2338650BF9
:10054000233C750B2330850D2334950D2338A50DE1
:10055000233CB50D2330C50F2334D50F2338E50FC9
:10056000233CF50FF32500102330B5102338250068
:10057000233015001305851027300500273415009A
:1005800027382500273C35002730450227345502FF
:1005900027386502273C750220A124A528A92CAD87
:1005A00030B134B538B93CBD2730050927341509B9
:1005B00027382509273C35092730450B2734550BAB
:1005C0002738650B273C750B2730850D2734950D93
:1005D0002738A50D273CB50D2730C50F2734D50F7B
:1005E0002738E50F273CF50FF32230002330551054
:1005F00001458280000000000000000000000000B3
:100600000000557126E44AE84EEC52F056F45AF8D0
:100610005EFCE2E0E6E4EAE8EEEC22E08009A2F02B
:1006200086F4A2B8A6BC4AA14EA552A956AD5AB1AD
:100630005EB562B966BDEAA1EEA50A85EFA0704A73
:10064000A67069618280930780033357F5001377A2
:10065000F70F19E3E117F5FB130700041D8F33555E
:10066000F500979701009387E7C83E95034505007D
:100670003B05A7408280977720009387A7981707AC
:1006800020001307F7C0014663ECE700970720003E
:10069000938747C0177620001306F6961D8E719A31
:1006A0008145170520001305E5BE6F80701D4111BF
:1006B00022E02A8406E4EFF0DFB4634480021305ED
:1006C0001004EF004061EF00A05B13052004EF0071
:1006D000806013053004EF000060EF00003DEF1074
:1006E000202073005010F5BF797106F422F026EC3B
:1006F0004AE809CD179601001306C6CF9305C0102E
:1007000017950100130505D0EF708030EFF0BFF6AC
:10071000977424009384044F17042000130404B436
:1007200017990100130989CF636494021796010099
:10073000130646DF97950100938545DA0D45EF8056
:10074000302C17960100130666D39305F0084DBFB1
:100750002146CA852285EF80F00F79C90504E9B7E3
:1007600083478400034794008346A4009B97870136
:100770001B1707019B968600B99FB59F8346B4005F
:10078000B59F9B87071F821781939706E0B09386DA
:10079000668763F6F602179601001306A6D89795AA
:1007A0000100938525CEB386D7400D45EF805025B7
:1007B00017960100130686CC9305800A91B713871C
:1007C000F7FF170680001306E683B306C700FD5542
:1007D0002297636EC40217960100130626D39795DD
:1007E00001009385A5CD0D45EF809021179601005E
:1007F0001306C6C89305D00521B703460700FD16AA
:100800007D17A307C1000346F100A380C600FD17B2
:10081000E395B7FE0145EF00A074735000189707E9
:10082000000093872787739057100145EFF03FE84A
:10083000977620009386063DE3E486F21796010042
:10084000130646CE97950100938545BE818E0D45D2
:10085000EF80101B17960100130646C293059009FE
:1008600045B52DA19357B50341113D895D8D22E01A
:1008700006E4E5471B040500631BF500B7070838CD
:10088000938717408A07804365246309A400228563
:10089000EF004048E147AA8563D98700B7070838C9
:1008A000938717401D348A0780C3A26002642E8597
:1008B000410182801971A6F48564FD14B2945EFC36
:1008C000B180B70BF0FFA2F8CEECD2E8D6E4DAE0C4
:1008D00062F866F46AF06EEC86FCCAF02A8A2E840E
:1008E000368B8124B309B600814A174C2000130CC3
:1008F0006C7193DB8B00170D2000130DAD19B70D34
:100900002000856C63C19A02E6704674A67406796D
:10091000E669466AA66A066BE27B427CA27C027D9F
:10092000E26D096182802286E2850945EF00604D13
:100930001319250033797901631D09026A85EF7067
:10094000204509C503398500631E0900179601007B
:100950001306C6BE9305600C17950100130585BEEE
:10096000EF70000B0147A2864A86E2850945EF0039
:100970008043B307B401637F3401A28652865A874D
:10098000CA850D453EE4EF000042A2676694669A70
:10099000E313F4FE9B8A0A20B5B70B0020000B007E
:1009A00090018280011106EC22E826E44AE09707D4
:1009B00020009387270F171720001307A764972697
:1009C00020009386266465549754200093848463A2
:1009D00098E794EF170720001307C70B970620002E
:1009E0009386460D72141CE394E314E7A68523B89E
:1009F000070037070040930764028146014605451A
:100A0000EF006048930764021D449316D401173920
:100A100020001309295F3686CA853707001009456B
:100A2000EF006046130700029316D4014A86A6859C
:100A30000545EF00403717F4FFFF1304A45CA285BF
:100A400022859306A00217F6FFAF1306A65BEFF010
:100A50007FE697F51F009385E55A2E859306600281
:100A600017F6FFAF1306065AEFF0DFE41749200030
:100A700013094959A2864A86A6851307000205452F
:100A8000EF0060324264E260A264CA85026997F6B0
:100A90003F00938626579307600217F71FB113078D
:100AA0006756368609450561F9AE411106E4EFF057
:100AB0007FEF97F71F0083B7677B7D5793564701FA
:100AC000B183F58F7E17D98F7390071873000012CA
:100AD0000F0030030F100000A26041017DBD0145F1
:100AE00082801D55828099C123A00500B726003061
:100AF00083A746081167130707F08127F98F7D55F3
:100B000089C703A5C6081375F50F82800947733797
:100B10000710B7260030DC52812791C5D59BDCD267
:100B200073100710828093E7A700D5BFB727003066
:100B300003A547089167938707F001257D8D33351D
:100B4000A0008280372700308327470893F7F703F8
:100B5000E5DF81252324B7088280B727003003A56D
:100B600047081375F5033335A0008280B72700309E
:100B700003A547081375F50313351500828041114D
:100B800022E006E4094473340410372700305C5334
:100B9000812799C9ED9B5CD3EF50107A7310041034
:100BA000A26002644101828093E747005CD3FDB7F5
:100BB000411106E422E0607503450400EF00404364
:100BC000034504000264A2600146814541016F10A3
:100BD0008007011122E806EC26E464752A86970551
:100BE00000009385850203C50400EF10C0052A8428
:100BF00009E503C50400EF004046E2602285426437
:100C0000A26405618280797126EC06F422F0372710
:100C100000301C53405332859B840700898B01248C
:100C200091CB9377240099E789471CD732E4EF50A2
:100C3000F07B226593F7440081CB9377440089E7EA
:100C40002AE4EF50706F2265A18889C4218819E0D9
:100C5000EF50D079A2700274E26401454561828050
:100C60004111014685453725003006E4EF000012AA
:100C7000A26037250030014685451105410139A2A2
:100C8000854717F71F002300F7388280011122E8FB
:100C900017F41F0013040437A285179501001305EC
:100CA000E58B06ECEF50D02E4146979501009385D9
:100CB000E58B0A85EF80A04A8347240089EB9307E0
:100CC0000003A2850A85A304F100EF50702CE260B6
:100CD000426405618280797122F026EC2A8406F450
:100CE00017F51F00033585408944F3B40410A94764
:100CF0006317F400B5452AE4EFF0DFE42265A2852E
:100D0000EFF05FE473900410A27022850274E26435
:100D100045618280011122E806EC26E41B0785FF6D
:100D20008D472E8463E5E7009C6191079CE1971451
:100D30002000938424E09C6089CF1796010013065D
:100D4000E6899305F004179501001305A58BEF6064
:100D5000304CA28580E0EF00D0739C60638E8700EA
:100D60000145EF00102880609707200083B78712A5
:100D7000171720002334F7DEE260228542649717BC
:100D8000200023B907DAA264056182808947F3B79E
:100D90000710184193C5F5FF0127F98DD18D0CC1BE
:100DA0007390071082801B08F5FF894763F00703E3
:100DB00041111796010013066686930540041795A6
:100DC00001001305A58706E4EF6090449377E700E0
:100DD0001378F7F299C31368070CDD57BB87A70296
:100DE000098233660601136616009B877702B3D724
:100DF000F60093F7F71F8E07BE9590E17300D012AF
:100E000082801B07F5FF894763F0E70241111796BF
:100E100001001306A680930520071795010013050E
:100E2000E58106E4EF60D03EDD57BB87A7029B87D4
:100E30007702B357F60093F7F71F8E07BE958861C8
:100E400082801B07F5FF894763F0E702411117868F
:100E500001001306A67C9305F00717850100130512
:100E6000E57D06E4EF60D03ADD57BB87A7029B879C
:100E70007702B357F60093F7F71F8E07BE9594E1FC
:100E80007300C0128280397122F84EEC3284B309AB
:100E9000E6001B06F5FF56E4BE8A931706021B0701
:100EA000060013D6D701978701009387A77A3E964D
:100EB00026F45AE006FC4AF052E88947033B060054
:100EC000B384864063F3E7041786010013060675B2
:100ED000930500091785010013054576EF6050332F
:100EE00022865687D2854A85EFF0FFEB5A94B38667
:100EF0008400E36734FFE2704274A2740279E2690D
:100F0000426AA26A026B216182802A892E8AC5B751
:100F10007D351B070500894763F0E70241111786FD
:100F200001001306A66F9305C0091785010013057C
:100F3000E57006E4EF60D02D9317050213D5D701B5
:100F400097870100938707713E9508618280411160
:100F500006E4EF10C05FA260033585134101828073
:100F6000011122E806EC26E42A848947F3B707102A
:100F700097162000938686BB9062054798E263052A
:100F8000E602170720001307E7D497062000938690
:100F900066B014EB9706200023BE06D29706200009
:100FA000938646D298E298E6739007108944F3B48A
:100FB0000410170520001305E5D0EF60705D7390F5
:100FC000041009ED178601001306466A9305A00870
:100FD000178501001305056AEF60902300E5731083
:100FE00005140F00F00FE2604264A2640561828084
:100FF000C5476315F500737041108280D5476317AC
:10100000F5009307000273B047108280E54763D56F
:10101000A7041B0775FE9307F00363C1E702B71728
:1010200000701B55574086071B1525008545938783
:1010300007080146BB95E5003E9589BB411117861F
:1010400001001306A6439305D00817850100130578
:10105000E56306E4EF60D01B8280C5476315F500A9
:10106000736041108280D5476317F5009307000233
:1010700073A047108280E54763D5A7041B0775FE60
:101080009307F00363C1E702B71700701B55574081
:1010900086071B1525000546938707083B16E600C3
:1010A00081453E95E5B14111178601001306063DC5
:1010B0009305700B178501001305455D06E4EF608D
:1010C000301582809307002073A0471073650110CC
:1010D0008280411106E48947F3B70710EF00201F13
:1010E000B7170070860723A0070823A20708B707D1
:1010F0000838938717408A0798438565938505804C
:10110000012798C317F51F001305C518EF00400508
:101110009D47F6071387470085469387C71414C376
:101120001107E31EF7FEB7070E0093871720B207DB
:1011300023A00700A260410171B737C7ADDE97F762
:101140001F00938727151307F7EE97062000938655
:1011500066943E8618C29107E39DD7FE6FF06FF04C
:101160009307F500C19B2E959DE1411128000A8748
:101170006373A7003A8537C7ADDE41991307F7EED1
:101180006394A7004101828098C39107D5BF37C7F8
:10119000ADDE41991307F7EE6393A700828098C3F1
:1011A0009107DDBF011106EC22E826E44AE08967D9
:1011B00063FEB700178601001306C64E930590051F
:1011C0001785010013050550EF6090043C7DAA844B
:1011D0002E84328991EB89476319F904A285096548
:1011E000EF802031A8FC09A83C796387B700B2855D
:1011F000EF00601FBC7CE5D3BC7C7D558DC3B385FF
:101200008700C1999D8D3E85DCE0ACF8EFF05FF57D
:1012100083D72404014593E707202391F404E26077
:101220004264A264026905618280A2850965EF803B
:1012300040134DBF011122E826E41314150006ECFB
:10124000BD47AE840580978601009386A64963CA90
:10125000A70013173400978701009387A76CBA97EC
:101260009463F327101473283014178601001306B3
:10127000666A228797850100938545470145EF708F
:101280003078A286178601001306C668978501008C
:101290009385C5490145EF70B0768947F3B70710CC
:1012A000178501001305054BA68617860100130656
:1012B000E61C930550059717200023BD9786EF0085
:1012C000B04DE2604264A264014505618280411133
:1012D000014697050000938525F6014506E4EF00D9
:1012E0009016014697050000938505F50545EF002A
:1012F0009015014697050000938505F40945EF0018
:101300009014014697050000938505F30D45EF0005
:101310009013014697050000938505F21545EF00EF
:101320009012014697050000938505F11D45EF00D9
:101330009011014697050000938505F01145EF00D7
:101340009010014697050000938505EF1945EF00C1
:10135000900F0146970500009385C50F2145EF00CA
:10136000900E014697050000938505ED2545EF0099
:10137000900D014697050000938505EC2945EF0087
:10138000900C014697050000938505EB2D45EF0075
:10139000900B014697050000938505EA3145EF0063
:1013A000900A014697050000938505E93545EF0051
:1013B0009009014697050000938505E83945EF003F
:1013C0009008014697050000938505E73D45EF002D
:1013D0009007A2600146970500009385E5E54D451D
:1013E00041016F005006411122E006E42A84287D65
:1013F00019C98357240493F7072091C78947639439
:10140000F502EF80E00983572404A260233C040620
:1014100093F7F7DF2311F40423300408233804067C
:10142000026441018280EF709072F1BF411106E0C9
:1014300097A20100938282C90E05AA9283B202008C
:10144000E7800200826041012A860D456FE0DFEEF1
:10145000011106EC22E826E44AE091C917092000B0
:101460001309496D833409002E84638EB4001786F6
:101470000100130626539305700717850100130515
:10148000E554EF60E058BC691947FD176362F71A2D
:1014900017870100130707658A07BA979C43BA9715
:1014A0008287BC6D81EB178601001306A653930556
:1014B000B009E1B703B50714930585102330A900DF
:1014C000EFE0FFDEE2604264A2640269014505616B
:1014D0008280BC6DA47191C381E817860100130658
:1014E00066519305600B51BF23B0B71422859385D5
:1014F0008510EFE01FD203B504147DBFEF10200567
:101500008347850F7D569B86F7FF36876399C60014
:1015100017860100130606509305000DB9BF920708
:10152000AA97F07B10E0FC7F2330F4103C703CE87D
:1015300099E68337051281C71CE8233005128357CB
:101540002504230CE50E93F7F7F72311F504EF10AC
:1015500040218DBFEF00B07F833705121CE8233098
:1015600005123C6C1CE03C703CE83C743CEC83375E
:10157000041093F7F7EF2330F410A9B7EF00307D94
:101580007C7981CB178601001306C6499305801626
:10159000EDB51C607CF9B7178000A2079C631CE0C6
:1015A0008337041093F7F7EF2330F4103C6C3CE8DA
:1015B0003C703CEC3C743CF03C783CF48337851246
:1015C000E38207F01C686146233CF5127C752C70A1
:1015D0009C6BA1173E85EF70B03E08E828F0DDB5A2
:1015E000EF00F0767C7981EB1786010013068645C3
:1015F0009305201B59B51CE08337041093E70710AF
:101600002330F410833785122338050EE38C07EA64
:101610008337851381EB178601001306A6449305D3
:10162000F01BA1BD1CE883370513233CF51259BDFF
:10163000EF00F071033709008347850F306B130704
:1016400000099B8607006379C7001786010013060F
:1016500066439305601D15B505476359D700178686
:101660000100130626459305C01D01BD9060139728
:1016700047002A972330C71003B604108527233468
:10168000C710230CF50E97070000938767DA9CE0DC
:1016900083B7041093E7071023B0F410BC68E11778
:1016A000BCE88357250493E707082311F504E39B5F
:1016B00006E083378512E38707E08337051281CB85
:1016C00017860100130606409305F01F7DB39C6842
:1016D0002330F51284E8FDB3011126E497042000BD
:1016E0009384444522E888E0AA852A84014601457E
:1016F00006ECEFF0FFD59C60638587000145EF00A5
:10170000400EE260426488609707200023B40742DD
:10171000A26405618280411122E006E42A84EF90F0
:10172000707122850264A26041016F70705741118F
:101730001305000706E4EF70D05D19C185473CD55D
:10174000A260410182800CED0CF101458280894745
:10175000F3B707103855052738D5739007108280E6
:10176000011122E826E406ECAA842E84EFA0C01A18
:1017700063490500886CEFF09FFD9C6C01451CECF3
:101780001CF0E2604264A26405618280AA878946F7
:10179000F3B6061038551B05F7FFA8D7739006104F
:1017A0008280011106EC22E82AE405C92E84EFF0BC
:1017B000FFFD05E5A26609CC4264E2600147170619
:1017C0000000130686F59385860305616F10906906
:1017D0004264E260368505613DBFE26042640561B6
:1017E0008280797106F422F026EC4AE84EE415E195
:1017F00017F51F000335056A09ED1786010013066A
:1018000066309305A0081785010013052530EF60A9
:10181000202000711DCC0949733909109709200057
:101820009389C93183B409006303940281C4268576
:10183000EFA0400E2285EFF09FF12285EFA0000976
:1018400089C485452685EFF0DFF523B08900731044
:101850000910A2700274E2644269A26901454561FF
:101860008280011122E826E44AE006EC17F41F000A
:1018700003344462AA842E89EFF07FED1C70228528
:101880002330F90004F04264E260A2640269056159
:1018900089BF011122E826E406EC17F41F00033487
:1018A000645FAA840870EFF07FEE04F02285426442
:1018B000E260A264056135B7011106EC22E826E476
:1018C0002A84EFA0A005AA84086C8145EFF07FED83
:1018D000E260233C040042642685A26405618280A4
:1018E000397122F817F41F0013044442854726F487
:1018F00013068016814597042000938424252285B1
:1019000006FC4AF04EEC2380F400EF7060778D47C0
:101910002300F40417F91F001309C95397070000A7
:10192000938747FC1CF81CFC7D468947978501007E
:10193000938545274A852311F404EF7050028347AD
:10194000040497F91F009389693B23B02901139779
:101950004700978701009387E725BA9703C7870059
:101960009C63218B19C35864BA9717F71F00233360
:10197000073A986318E03DEF80E380E7970720007F
:1019800023BE871C89472C000A852380F400EF9032
:101990002024A2650265170920001309E91AEF70D7
:1019A000102E2C000A85EF906024A2650265EF706E
:1019B000103891472320F900054783270900812724
:1019C000635DF7020325090001250E05EF707034F1
:1019D0009707200023B0A718631E050A1786010089
:1019E000130646149305801F1785010013058514FF
:1019F000EF60000200E780E351B7832709009B975F
:101A000017002320F90055BF1C6817F51F001305A8
:101A1000E52FDC6323B03703EF90403F17F51F003D
:101A20001305C52EEF10703217F51F001305052E94
:101A3000EF20202618688D472380F4002308F70044
:101A40001707200023200710EF003023EF00401D70
:101A5000EFA0C00DEF00E01CEF101069EF10701543
:101A6000EF00F041EF00F010EF00D012EF10817A9C
:101A7000EFF0AFECEF40E05291472380F400EF200D
:101A8000603B635D0502178601001306260F930570
:101A9000A02999BF834524048327090000E117F595
:101AA0001F001305A526EF20A013E35F05F417869A
:101AB000010013062609930570203DB79547238042
:101AC000F400EF00800D635905001786010013062E
:101AD000660C9305302B09BF99472380F400EF0073
:101AE000301EEF90603DF5BF397106FC22F826F4F8
:101AF00002E0EF2051142800EF60C06005649304F9
:101B00004006130404C017770200130727778546A1
:101B100017860100130606139785010093850513A8
:101B20001785010013058513A304910022ECEFD063
:101B30003036635E050017860100130626139305F1
:101B400080161785010013056513EF50706C28008F
:101B5000EF60405B130881008147014781460146E1
:101B60008A85178501001305E51222ECA304910074
:101B7000EF1001762A842800EF60205F634980001F
:101B800017860100130686129305B0175DBFE27039
:101B90004274A274014521618280411105469785F6
:101BA000010093852511178501001305251106E411
:101BB000EF10506805469785010093852509178524
:101BC000010013052510EF10F066EF10F03BEF1049
:101BD000F0530567AA88014897070000938707F12B
:101BE0001307078081461306000F894517850100FA
:101BF0001305C50DEF10E021634EA000178601000C
:101C00001306C60D9305601B178501001305050714
:101C1000EF501060EF10D05EA2600145410182805C
:101C2000828097F71F009387E72817F71F00130795
:101C3000677A970600009386260994E3C107E39E1E
:101C4000E7FE6FF00FC99307100563E2A7040111C7
:101C500022E826E406EC2A848944F3B4041081E9DE
:101C6000EFF00FB90146970500009385E50517F5DC
:101C70001F001305252412042A940CE010E473902D
:101C80000410E2604264A264014505618280295526
:101C90008280930710051B07050063EFA7009316CA
:101CA000070293D7C60117F71F001307A7203E9717
:101CB0001C6399C3106782870146970700009387CA
:101CC000A700D5BF411106E4AA868947F3B70710DC
:101CD0001786010013060604978501009385850089
:101CE0000D45EF70E0511776010013062679930534
:101CF00060031785010013056500EF5070515D7199
:101D0000A2E026FC4AF84EF486E42A84AE841789C1
:101D1000010013092931978901009389290163F989
:101D20008400A6600664E2744279A27961618280CF
:101D3000014763739400184093064400814763F39E
:101D400096005C4093068400014863F496000328E3
:101D500084009306C400814863F496008328C4007D
:101D600093060401014663F396001048930644016C
:101D7000814563F396004C4893068401014563F363
:101D80009600084C9306C401014363F496000323B4
:101D9000C4012AE82EE432E0A2861AEC4A86CE85F7
:101DA0000145EF70E0451304040295BF797122F0FC
:101DB00026EC4AE8AE843289368417860100130681
:101DC0006627AA86978501009385C5F9014506F423
:101DD0004EE4BA89EF70C042CA8617860100130626
:101DE0006625978501009385E5F80145EF70404130
:101DF000A286178601001306E623978501009385C6
:101E000065F80145EF70C03F85CCA68617860100B6
:101E10001306462297850100938545F80145EF702A
:101E2000203E938704FE63E32701BE84B305890047
:101E300026850274A270E2644269A2694561C1B557
:101E40003304344133052401B385A900DDB729717A
:101E500022FA130680032A848145281906FE26F6F5
:101E60004AF24EEE52EA56E65AE2DEFDE2F902F995
:101E7000EF7000212285EF906042247889C8630BBF
:101E800005109307803E3305F502B354950293097C
:101E9000010B13060004CE852285EF20602513096F
:101EA0000109CA85228513060002EF00E06A930546
:101EB000C0024A85EF70802909C5930700022300FC
:101EC000F5001C6814547D5791C3984703562404A9
:101ED00097850100938505188347C4021375860111
:101EE000AA9503B8050093753600139535009785BC
:101EF000010093852518AA951376061083B805006E
:101F0000130A000519E2130AD0022285832A440924
:101F1000032B0409833B0408033C04073AE546E12C
:101F2000C2FCBEF8B6F4EF90603729461303F031D7
:101F30008A686678C6772A67A67613048414CEEC7E
:101F4000A2E82AF862F45EF05AEC56E84AE452E05D
:101F50000145B3D5C40233F6C402B334930093846D
:101F60000402A6E42EFC97850100938525E4B2E0E7
:101F70001786010013060609EF708028F27052746C
:101F8000B2741279F269526AB26A126BEE7B4E7CBD
:101F9000316182808144E5BD2971DEFD970B20000F
:101FA000938B4BB983B70B0022FA52EA56E6E2F95B
:101FB00006FE26F64AF24EEE5AE2E6F5EAF1AA8A63
:101FC0002E8C328A36846384071A9704200083B4E7
:101FD000E4B883B90401638C090083D72404898B96
:101FE000639C071803A58900EF00A03EAA89094B4E
:101FF000733B0B10EF0060486312041817F51F00C5
:102000001305453DEFE0CFCF17F41F001304843CC8
:1020100083B70B00054981EB03D9240413793900F8
:102020007919133919000C101345190026F022F400
:1020300056FCE2C052F8EF00E024EF401047A80041
:10204000EF5030229308510C130821099307D10750
:102050001307D105B400177602001306A66497850E
:1020600001009385A5DA0145EF70801963160A0017
:10207000177A0200130A8A2063960A00977A0200F0
:10208000938ACA1F1388841497880100938888D77D
:1020900063840900938889149C7C5687D2861776BE
:1020A000020013062660978501009385A5D83EE0BF
:1020B0000145E287EF70C0142285EF8030632285EE
:1020C000EF8090622A84EF80D05383BA040803BC67
:1020D000040703BD84122A8AB38C8A016368A400B2
:1020E000856793870780AA976365F4186368A401DE
:1020F0008567938707C0EA976361F41863645401A6
:1021000063689405178601001306C6F397850100DE
:102110009385C5D60145EF70A00E85490144EF9027
:10212000201B85662A87A28593860680528617859E
:102130000100130525D8EFF07FC703B50B00EF8032
:10214000B05A2A846366550563749505639409043F
:102150002DC02685EF9080142A87E2865686A285B8
:1021600017850100130585D5EFF05FC499A097F49A
:102170001F0083B424D2B1BD814995BD130600214F
:10218000A28517F51F001305E524EF70600349B51C
:1021900001448549814585660147938606C06A8664
:1021A00017850100130505C6EFF05FC05DF0E392EF
:1021B00009FAEF40902F630C0908EF906011AA878D
:1021C000014411C51304803E330485022D80178617
:1021D0000100130626E4978501009385A5CE0145ED
:1021E0003EECEF70E001EF80D0412948B378040362
:1021F0001307F03133378700E267130707023AE02D
:102200000567AA861307078017860100130686E074
:1022100097850100938585D3014533580403EF600A
:10222000307E8145170500001305A5C2EF00001E92
:10223000EF40B0270C100945EF00C0048145094567
:10224000EF00600B1305A00FEF403054E5BFEF0027
:10225000202773100B10F2705274B2741279F26965
:10226000526AB26A126BEE7B4E7CAE7C0E7D31619F
:1022700082808149E31504EA2DBF05DCA2858149EE
:10228000014411BF797122F026EC4AE806F44EE4CD
:10229000AA842E89094473340410170520000335DD
:1022A000658C11E973100410A2700274E264426933
:1022B000A269456182801C61833985004A86A685B2
:1022C00082974E85F9BF8946F3B60610170720009E
:1022D0001307C7891C6391E71CE508E37390061098
:1022E0008280E38DA7FE0C49904BE347B6FE13872F
:1022F00087009C67CDB7797122F026EC4AE806F496
:102300004EE4AA842E890944733404101705200072
:102310000335C58511E973100410A2700274E264DC
:102320004269A269456182801C61833985004A86C1
:10233000A68582974E85F9BF011122E82A841305EC
:10234000001C26E406ECAE84EF70C01911CD130713
:10235000051C1C602308950000E51CE188E708E0E7
:1023600013058503E317E5FEE2604264A26405619C
:1023700082804111814517E51F00130525DB06E426
:10238000EFF09FFBA260894517E51F00130505DBF1
:1023900041015DB741111305002006E4EF70801480
:1023A00005C517E71F00130767DA146393050520B7
:1023B000AA8794E398E79CE613860704BE86639891
:1023C000C5001305051C08E3A26041018280B287A5
:1023D000CDB72A878946F3B6061017F51F000335D7
:1023E000657715C16340070297F71F0083A7C7757C
:1023F000FD37F98F81278E07AA97886309C51C5579
:102400006383E7000145739006108280397126F4DA
:102410004AF04EEC06FC22F852E856E42A89AE89CE
:102420008944F3B404100144EF00200517FA1F009B
:10243000130A8A7197FA1F00938ACA7183270A00C8
:102440001B0704008127634FF700EF0060077390BC
:102450000410E2704274A2740279E269426AA26ACC
:102460002161828083B70A0013173400BA9788630A
:1024700019C1CE8502990504D1B717F71F0003379C
:1024800067A10DCF97F71F0083B7C76A85EB831746
:1024900047049306E00763D0F60241111786010056
:1024A000130646BF9305300F17850100130505C0BD
:1024B00006E4EF50E05585272312F704014582809A
:1024C00001114AE017F91F001309C99C22E80334DF
:1024D000090006EC26E421CC97F71F0083B7876537
:1024E000B9E78944F3B40410831744046349F00244
:1024F0002312040497F71F0083B7C798A1E38357FB
:1025000024042147E18B6392E7023C4499EF83372F
:102510000900638C87009307800C3CC439A0FD3709
:10252000C217C1932312F404E1D773900410E26040
:102530004264A2640269014505618280EF20201D8A
:102540005DDD03350900A285EF8010434DBF17F50F
:102550001F00033525948280797122F026EC4AE829
:1025600006F42A84086DAE84328901C52C00EFF090
:102570004FAF8947F3B70710834604041547639D9F
:10258000E602546403C72600118B1DC7944E739056
:102590000710178601001306E6B2CA852685EF509C
:1025A000103D1C6C81C72265EFF0AFAEA2700274C3
:1025B000E264426945618280739007108347040496
:1025C0004A8626851397370097870100938707B9B6
:1025D000BA978C63EF60B038E9B7011122E82A841A
:1025E000130580033385A50226E44AE006ECAE8499
:1025F0003289EF60306F15C1AA878146812410604F
:10260000238827033E8723B007009387870301EEC3
:1026100018E018E48526E3C496FEE2604264A264F2
:10262000026905618280106418E2E5B7011122E8B1
:102630002A84130580023385A50226E44AE006ECCD
:10264000AE843289EF60106A15C1AA878146812461
:102650001060238027033E8723B0070093878702FB
:1026600001EE18E018E48526E3C496FEE2604264B9
:10267000A264026905618280106418E2E5B7411125
:102680000146914517F51F001305C5F606E497F7B7
:102690001F0023B907F497F71F0023B907F497F732
:1026A0001F0023B907F497F71F0023B907F497F722
:1026B0001F0023B907F497F71F0023B907F497F712
:1026C0001F0023B107F697F71F0023B107F697F70E
:1026D0001F0023B107F497F71F0023B107F4EFF0B1
:1026E000DFEF09ED178601001306C6AB9305000D59
:1026F00017850100130585ADEF5080310946A145CE
:1027000017F51F00130505F0EFF03FED01E91786FF
:102710000100130626AD9305600DD9BF0146914512
:1027200017F51F00130505F0EFF05FF001E91786BC
:102730000100130626AE9305C00D5DBF0946A145F5
:1027400017F51F00130505EDEFF05FEE01E91786A1
:1027500001001306A6AE9305200E59BFA2604101E9
:102760008280397106FC26F44AF097E41F0083B496
:10277000647222F8EFF07FD02685EF20003E2C080F
:102780002AEC138604092E85EF50D0062808EF5056
:10279000F00B7D5911C9EFF0BFD20145E2704274D0
:1027A000A2740279216182802808EF00000FAA85B7
:1027B000630425032AE42808EF50E07FA2652685FC
:1027C000EF0080022A8409C9930585002685EF0061
:1027D00040242285EF0040072808EF50300769D5D4
:1027E000EFF01FCE05455DBF011106EC22E826E49F
:1027F0001C6989EF178601001306C6DC9305C00328
:1028000017850100130585A6EF5080208944F3B495
:102810000410C06F01450DC0034784006319B70061
:102820009385870901E92E85EF50805631A02285D6
:102830000060D5B7EF50205773900410E2602285F6
:102840004264A2640561828003470502AA870DE302
:102850008946F3B6061017F71F001307A7DC2330CD
:102860000500106315E21CE31CE7739006108280DC
:102870008946631ED700F3B6061017F71F0013072B
:1028800067D923300500F1BF10671CE2F1BF85470F
:102890006314F7006F60D0408280011122E826E4C3
:1028A0004AE006ECAA84054413090004A2852685A3
:1028B000EF50C07A09E50524E31A24FF7D54E26055
:1028C00022854264A264026905618280797106F4FE
:1028D00022F026EC4AE84EE452E001C504692A8958
:1028E00089EC178601001306E69A930550101785A8
:1028F00001001305259DEF50A01183C60500FD477B
:10290000AE891B8706FE63FCE70209477337071091
:10291000C86C09C5034685006311D6027310071001
:1029200019CD0274A270E2644269026ACE85A2697E
:102930006146210545616F60B0080861D9BF97F70E
:102940001F0083B7271FADCF17F51F00130585CDD7
:10295000EF5000442A8409E917F51F00130585CBC1
:10296000EF5000432A8459C5130A84006146CE857E
:102970005285EF60F0048947F3B707102330040055
:10298000D86C35E7C0ECC0F0739007108345840025
:1029900003350901EF2080242DC51C4D93F707084E
:1029A000ADC31C71D28501461CEC1C650345840037
:1029B0000274A270E2644269A269026A4561828778
:1029C000094A733A0A1017F51F001305A5C5EF5001
:1029D000203C2A8473100A1041F913058002EF602D
:1029E00070302A8401C985472300F502B5BFD8702D
:1029F00000E351BF178601001306468E930580122F
:102A0000FDB5A2700274E2644269A269026A45617E
:102A10008280397106FC22F826F44AF04EEC52E826
:102A200056E45AE019C12E8989ED17860100130674
:102A3000668B93051015178501001305A588EF40D7
:102A4000307D835725042A8493F707106392072269
:102A500083C50500014A6389050E1305050917EBB7
:102A60001F00033B2B43EF50605F8547AA8A630832
:102A7000F5008357240493F70708638B070E8944F6
:102A8000F3B404100347040499476313F70A930946
:102A9000840963990A086146CA851305040CEF602E
:102AA00020724E85EF50A0533C70D5EB18641C602B
:102AB00045EF97E61F0023B7F63ECDEB97E71F00E3
:102AC00023B6E73E23300400233404002285EF10B0
:102AD000303409C5DA852285EF80006A73900410CE
:102AE000014A63900A06CA852285EFF03FDE8944D9
:102AF000F3B404100347040495476316F7009145A7
:102B00002285EF10D07A834704040547E53793F711
:102B1000F70F6366F70091452285EF10C07473903C
:102B200004101DA0834509004E85EF50205325F564
:102B300073900410CA852285EFF05FD9014AE388BB
:102B40000AFA63D30A00295AE2704274A274027925
:102B5000E269A26A026B5285426A21618280130592
:102B60000405EF00B02299B71CE381BF98E799BF35
:102B7000EFF0BF90086801E917760100130686712F
:102B8000930560044DBD83450900EF202005AA8907
:102B900025C51C65B5C3EF208007AA84515A29CDED
:102BA00083B789001CE583B709011CE983A7890164
:102BB00093F7070291E7834509004105EF50E03D97
:102BC0006146CA8513858401EF60805F83B709027F
:102BD00089499CF4F3B9091023B004005C70D1E377
:102BE00044F044F4970500009385850C2285EF801E
:102BF000004773900910014AEFF09F8C8944F3B4A9
:102C00000410034704049947631AF7046146CA8510
:102C10001305040CEF60C05A13058409EF50203CE3
:102C20003C7089C713050405EF00501618641C603A
:102C300005EF97E61F0023B7F6268DEB97E71F00F9
:102C400023B6E72623300400233404002285EF1046
:102C5000301C09C5DA852285EF800052739004107C
:102C6000F9BD5C7484E3B5BF1CE3C1BF98E7D9BF6D
:102C7000755AD9BD011122E826E406ECAA842E84F7
:102C8000EFF02FF511C9086901CDA2854264E26019
:102C9000A26405616F10603E2685EF108017EDB7C6
:102CA000E2604264A264755505618280757122E11B
:102CB000D2F02A84D6ECDAE8DEE4E2E006E5A6FC0F
:102CC000CAF8CEF4EF403058032B0500831A640491
:102CD000930B040A130A0409130C040B09497339F2
:102CE00009108357240493F707048DC77310091044
:102CF000EF4070552320650123135405AA600A6430
:102D0000E6744679A679067AE66A466BA66B066C87
:102D1000496182805E85EF50A007AA8461D98357FC
:102D2000240493E707042311F404233005005C789E
:102D3000CDEB48F85C68138604012C0044FC0808BD
:102D40003EE4EF50202E83C584010808EF50A022F6
:102D5000C2670947938584015CE8835724048D8BFF
:102D60006384E70861462810EF60804573100910FE
:102D700083C58401886481463010EF80204E8949E4
:102D8000F3B90910835724041008D28593F7F7FB91
:102D90002311F4042808EF50202A3008D2850810A7
:102DA000EF50002730082C003285EF50A02410107F
:102DB0002C085285EF5000270339040B630B0900E0
:102DC000631C99029C605CF85C7C63949700233CD4
:102DD000040A73900910EFF0DF982685EF10306930
:102DE000F5BD5C7C88E3B9B7731009109C6403C51A
:102DF00084010146829761B7833709006396970083
:102E0000E2854A85EF40307A03390900E31609FE6E
:102E1000C9B71D71A6E4AA8413058016CAE086EC22
:102E2000A2E82E8932FC36F83AF43EF042EC46E84D
:102E3000EF60206E21C1C268626882772277C27615
:102E4000627623112505A68502E02A84EF0060043E
:102E5000AA84635C05002285EF608064E6604664B6
:102E600006692685A6642561828022850454EF00C8
:102E70004047EDB7D154DDB73E888148BA873687E1
:102E8000B2862E86894571B7BA873687B2860146E3
:102E9000E5B71D71CAE052F85EEC86ECA2E8A6E444
:102EA0004EFC56F45AF062E866E42E8A8345250407
:102EB000BE8B854713F93500631EF90017760100B4
:102EC0001306464593054006177501001305854610
:102ED000EF4010348947AA84328BB6893A8CC28A73
:102EE000C68C6314F900233C05002685EF00504F83
:102EF0002A846343050A8868E685EF0010222A8445
:102F0000634D0502867505462685EF0070762A8496
:102F10006345050293150C028191638609022E8692
:102F20002685CE85EF80C02A2A84634A050026853F
:102F3000EF00A0612A8463590502638D090026858C
:102F4000EF00105D91A84A862685EFE0AFA52A84A0
:102F5000E35F05FCBC7CE5D78947E312F9FE8945B0
:102F60002685EFE04FC8E1BF4A87DE8617060000DE
:102F70001306263BDA852685EF0000212A84E34EDE
:102F800005FA5686D2852685EF0060202A84E3461E
:102F900005FA2685EF00F04FE66022854664A664B8
:102FA0000669E279427AA27A027BE26B426CA26CF9
:102FB0002561828018651C611DE397E61F0023BB15
:102FC000F6EA85E397E71F0023BAE7EA835525046D
:102FD00023300500233405008D896F1030051CE374
:102FE000CDB798E7E5B71D71A2E8A6E4CAE04EFCAC
:102FF00052F856F45EEC86EC5AF062E866E46AE059
:103000002A84AE84328AB68A3A8997EB1F0083BB42
:103010006BE88949F3B9091017FB1F00130B8BB23A
:1030200017FD1F00130D0DB397FC1F00938CCCB13F
:10303000094C83270B0083350D008146852703A7A4
:103040000C00012763CCE60203A50C001B1515003C
:103050000E05EF60004C2A8769E173900910515505
:10306000E6604664A6640669E279427AA27A027B47
:10307000E26B426CA26C026D256182803E876343E5
:10308000F000054783A70C001B060700FD37F18FF2
:1030900081278E07AE9788632DED80E310D423201F
:1030A000CB0073900910835724041377390093F4ED
:1030B000F40F13F947FE3369E9009307800C136995
:1030C000890023069402A306940223384403233C78
:1030D0005403231124053CC483B70B092285230024
:1030E00004045CE8EF709052EFF02FB997E71F00EF
:1030F000938747D898632334040018E0986351E31A
:1031000080E380E791472300F404EFF06FBB0145B3
:1031100081BF9B07170085261DB783A70C000335C9
:103120000D0081469B97170023A0FC0083A70C008D
:103130001B860600BBC787036347F6002330ED00FC
:10314000EF600036FDB593973600AA978C6383A78E
:103150000C0085061B86F7FF9C55F18F81278E0793
:10316000BA97906309CE177601001306261E9305C1
:10317000F009177501001305651FEF4070098CE316
:1031800075B700E780E3BDBFB9BD0547A9BD59715B
:10319000CAE8D2E056FC86F4A2F0A6ECCEE45AF8D7
:1031A0005EF462F066EC2A8AB28A1779010013098C
:1031B000692191C12E8913048A14130BF901CA8461
:1031C00083C904008504638D09004E85EF407006B5
:1031D00019C19309F005230034010504E39264FF4B
:1031E000230004004A85EF50107B1304150081442E
:1031F00093091010014B63890A0093973400D69706
:1032000088631B8B040015E19B042B008E04B3859F
:1032100084005285EF705060AA8929E11776010079
:103220001306C6189305C02439A8EF50D07683370B
:103230000A0705052A94636EF40017760100130649
:103240006614930500231775010013052512EF403E
:10325000207C8504E39334FB655581A0AA9404E1A6
:103260004A85EF505073AA8B2286CA852685EF5077
:10327000106F1B851B00338CA400098C938C890074
:10328000814B9B870B0063C7670323BC04FE833716
:103290000A010145DC6323B03703A6700674E664B7
:1032A0004669A669066AE27A427BA27B027CE26CEE
:1032B0006561828093973B0023B08C01D6978C6325
:1032C000850BA10C2E852EE4EF50F06CA2652A89A7
:1032D00022866285EF50B0681B0519002A9C098C74
:1032E0004DB7797122F026EC06F42A848944F3B4B0
:1032F000041097E51F0083B5E5B92EE4EF10404AAE
:103300002285EF10E030A26501C52285EF70D066FE
:1033100073900410A2700274E264456182804111CE
:1033200006E497E61F0083B6E6B603D72604854772
:103330000D8B6314F702177601001306A609930597
:103340002005177501001305E50BEF40606C85073C
:10335000639B07010545EF0040039C6A13081010AA
:10336000DC639073854793953700B2958C611B851C
:103370000700F1FD9C7E89466315D700B2858297D0
:10338000D9BFAA853E85EF70F06A011126E497E463
:103390001F0083B424B022E81374F50F268506ECD1
:1033A000EF00F0392685A285EF10B0212285EF705D
:1033B000702197E71F0023B7072897E71F0023B75F
:1033C000072897E71F009387E72897E61F00938653
:1033D000666C054617E71F001307C7260C63238694
:1033E000C70023B0070085E11CE31CE7938787082B
:1033F000E396D7FE97E71F0023BE072297E71F003B
:1034000023BE072282800C679CE1C5B7011122E828
:1034100026E406EC4AE0AA8409447334041017E554
:103420001F000335252109E973100410E26042648E
:10343000A2640269056182801C4903390500639416
:103440009700EF00A0024A85F9BF01CD0947733705
:10345000071097E71F0083B7E71D89E77310071070
:103460003E858280E38CA7FE9C63C5BF411106E4C4
:1034700022E0EFF09FFDEF002002635D05002A844B
:103480003B048040EF40205C00C17D55A260026497
:10349000410182800145DDBF5DC5797122F006F4EE
:1034A00026EC4AE84EE48347D50005472A84637D2D
:1034B000F700FD37A306F5000545A2700274E2642B
:1034C0004269A269456182806105EF00200C0949CB
:1034D0007339091097E91F009389C91583B409004E
:1034E00091CC631F94021C6023B0F90083B789005C
:1034F0006316F40097E71F0023B207148347C40044
:10350000858B85CF2330040097E71F0093878713AF
:1035100098630DE380E380E773100910014571BFE4
:103520009C606316F400CE852685EF40D00784604A
:10353000E5F8E9B7986700E3F9BF73100910228531
:10354000EF501076E1BF295582804111C14522E03C
:1035500006E42A84EF70502C05C93C7C638EA700DA
:1035600017760100130686EB9305C003177501005B
:103570001305C5ECEF40C04918680145586398E34E
:10358000A2600264410182805155DDBF011126E431
:1035900006EC22E88944F3B4041029CD1C692A847E
:1035A000B1CB97E71F0083B7E7540145B1C76399D3
:1035B00087021C6089C7984F144C359F98CF05C56A
:1035C00097E51F0093850553EF40E07D2338040005
:1035D000014573900410E2604264A2640561828038
:1035E0003E859C63E1B717E51F001305A550EF402A
:1035F000207AE9BF2955F1BF17760100130686E549
:103600009305F00517750100130545E5EF404040AF
:10361000011122E806EC09447334041097E71F00F7
:1036200093874747233005009867946318E58DEA30
:1036300088E388E76C0017E51F001305A546EF40F7
:10364000D011B24763D8070017E51F001305854561
:10365000EF10003C73100410E26042640561828048
:1036600008E3C1BF5D71A2E026FC4AF84EF452F0B7
:1036700056EC86E4AA842E84B28A368A3A8989492D
:10368000F3B909109C7199C3EF00602523305403EE
:1036900023344403BDE4631C09042330040097E78A
:1036A0001F009387273F9867946318E49DEE80E39B
:1036B0006C0017E51F001305E53E80E7EF40F009B9
:1036C000B24763D8070017E51F001305A53DEF10AB
:1036D000203473900910A66006644279A279027AB8
:1036E000E26A2685E2746161828000E3D1B7A28636
:1036F00017060000130606F2CA852285EF10102C6B
:10370000C9BFA954F9B75D7186E4A2E026FC4AF866
:103710002E844EF452F056EC086401468145EF5079
:10372000A0602A89086801468145EF50E05FAA84BD
:10373000094473340410894A130A090193090501E5
:103740004A85EF406068AA8709E55285EF10402A54
:10375000C5BF987375D723B0070288779CE47310B0
:103760000410029773B40A1023B404006C004E8551
:10377000EF40A07EB2471B8717003AC6E3D207FC92
:103780004E85EF10E028FDB7197186FCA2F8A6F46B
:10379000CAF0EFE09FCE0146814517E51F001305F3
:1037A000E532EF40A0731309010217E41F00130470
:1037B000642EA286177601001306C6CB930500027D
:1037C0004A85EF40D01A840097E61F009386062FA3
:1037D00017760100130606CA930500022685EF40FE
:1037E00010190566380097060000938606F2130646
:1037F00006809305400617750100130525C84AE4A5
:1038000026E802ECEFF04FE8634EA00017660100D7
:103810001306C64C9305701017750100130585C675
:10382000EF40001F08D4EFE0BFC9E6704674A674ED
:103830000679014509618280011106EC22E826E43F
:1038400089ED17760100130666C593059004177578
:103850000100130525C6EF40A01B2E848944F3B454
:1038600004109C719DCF9C6981CB2E85EFF01FD2F7
:1038700023300402014515A898659C6119EF97E66D
:103880001F0023B9F62081EF97E71F0023B8E72038
:103890002330040023340400E1BF1CE3EDB798E7B4
:1038A000C5BF8547630AF500795573900410E2603F
:1038B0004264A2640561828097E71F009387871D99
:1038C000987BE393E5FE8057EF10C07BE30EA4FCEA
:1038D00017E51F001305851FEF10801161BF19E167
:1038E0007D5599BF29558280411106E4EF70C02AA9
:1038F000A260410119A897E71F0083A7A727852782
:1039000017E71F002328F7268280828097D71F00A1
:1039100083B747589C6BC87782805D7186E4A2E0CC
:1039200026FC4AF84EF452F056EC5AE809ED1776A8
:1039300001001306A6B9930570041775010013055D
:1039400065BAEF40E00C2E89AA898144EFE0FFB20E
:10395000814A63010908139B3400B307690180633E
:1039600015E823B8990A814AA5C4138A14000E0ADF
:10397000D2854E85EF0010032A84D15A31C9611ACD
:103980002A9B529923300B007D5AFD146396440103
:10399000814A3DA88504C1B7033589FF6119EF50FD
:1039A000807F13061500B2854E8532E4EF00807FDC
:1039B00093973400A29788E3226615EDBE848C6449
:1039C000A10495E5A2854E85EF00F0050144D15A8A
:1039D00023B4890AEFE0DFAEA6600664E2744279A0
:1039E000A279027A426B5685E26A616182804E85D5
:1039F000EF007003E9B783350900EF50407671B7E7
:103A0000411106E497D71F0083B7C748886B09EDBB
:103A100017760100130686AE9305D00317750100D3
:103A20001305C5AEEF30D07EEF10B00BA26001459C
:103A300041018280397106FC22F826F44AF04EECEE
:103A400052E856E4630205122A892E8AB28481C59F
:103A500083C7050081EFB9C84274E270A274E269BD
:103A6000426AA26A4A850279216109A2EFE0FFA0B9
:103A700097D71F0083B70742806B09EC17760100C8
:103A8000130646B49305100717750100130585A9A1
:103A9000EF3010785C7485CBCA852285EF10F00971
:103AA000AA856342050289ECEFE09FA1E2704274AF
:103AB0000279E269426AA26A2685A2742161828043
:103AC0002285EF10300D5878FD5785836319F70074
:103AD00017760100130686A69305B00875B74A85C8
:103AE000EF50606BAA845285EF50E06AA99C89244C
:103AF000A6852285EF00006BAA8905C14C7495C587
:103B0000833A040B228513862A000E06EF00806D8F
:103B10001DE1CE852285EF000071EFE07F9A3144F0
:103B2000EF30707200C1FD5451B7C1452285EF00DE
:103B3000606765D1814A93973A00AA9723B037010D
:103B400023B40700850AA68548F45287CA861776EB
:103B50000100130626A12338540B4E85EF40206147
:103B6000EFE01F96814499B759445DBF011106ECFF
:103B700022E826E497D71F0083B7C731846B89EC0E
:103B800017760100130606A493052004177501009B
:103B90001305C59DEF30D0672A8409C98347050006
:103BA00091C79305D003EF50605A19C9EF30B0693F
:103BB000D9471CC17D55E2604264A26405618280E0
:103BC000EFE0BF8BA2852685EF102077AA8563459D
:103BD00005002685EF10007CEFE09F8E0145E1BFD8
:103BE000797106F422F026EC4AE84EE401C51C691E
:103BF0002A8989CF177601001306C69893056008B5
:103C00001775010013058599EF30906013050011B9
:103C1000AE89EF5010102A84D15435C193F9390080
:103C200089476398F9008347050193E72700230834
:103C3000F5004145EF50100B08EC31C991471305D1
:103C4000040C233889002309F400EF8060072285E3
:103C5000EF104045AA8463590500086CEF505004EA
:103C60002285EF50F00321A813050405EF30106FF3
:103C70000146814513050403EF4040268144A270AC
:103C800002744269A2692685E26445618280D1544A
:103C9000C1BF011106EC22E826E401C50069AA842F
:103CA00009EC177601001306E6909305100F1775BF
:103CB00001001305A58EEF30B0558355250413057B
:103CC000040D9BD515008589EF5030179C54186C56
:103CD0001CC31CC48547A308F4008947F3B7071029
:103CE00017E71F00130787E9146314E000E37390DC
:103CF0000710E2604264A264056182800347850286
:103D000019E783470501918B99C36F5060798280D1
:103D1000011106EC22E826E409ED176601001306FE
:103D200066DE9305F011177501001305258AEF3043
:103D3000304E0069AA8469C80C550147094583477C
:103D400014019B06070063C7F604CDEF2285EF1030
:103D5000603E2285EF00307B2285EF005006130580
:103D6000040CEF70F0772285EF10A0571305040DB7
:103D7000EF50D00E8946F3B6061097E51F009385E5
:103D8000E5DF9C610146A1CB98636310F40429E24E
:103D900098E181A01C6C13162700B2979C43639492
:103DA000B7027338051083471401146C8A07B6975D
:103DB00083A7C7FFB2969CC283471401FD37A308AF
:103DC000F4007310081005079DBF3E86BA8765BFD3
:103DD00018E223B0070073900610086C09C5EF5075
:103DE000206C233C0400087009C5EFF0805123309B
:103DF000040283470401228593E747002308F40067
:103E0000EFF0DFEF23B80400E2604264A2640561D2
:103E100082802A878947F3B7071017E51F0003350B
:103E2000E5D501C514456395E600739007108280BF
:103E30000861C5BF41118D45175501001305057275
:103E400022E006E4EF90103D2A8409ED8545EF80DD
:103E5000401D89450145EF80C01CA2602285026497
:103E6000410182806354A000EF80C0242554F5B73F
:103E7000011126E406EC22E8AE840C6989ED176690
:103E800001001306267493057004176501001305DD
:103E90006575EF30F0378357250405472A848D8BED
:103EA0006399E700176601001306C6529305900454
:103EB000E9BF97D71F0083B7E7FD886B01E9176655
:103EC0000100130626749305E004C1B7B2869385FA
:103ED000050C26861305050CEF80A002634B050038
:103EE00089C822854264E260A685A26405616F10DC
:103EF0004001E2604264A264056182808125638E94
:103F0000A502411122E006E42A84EFE08FCC11CD16
:103F10008357250409675D8F2311E5048D8B0547C1
:103F200022856399E700EF006040A26002640145CA
:103F300041018280EF00B060CDBF01458280011158
:103F400006EC22E826E41C6989EF176601001306D7
:103F5000E65A9305D009176501001305A56BEF30EC
:103F6000302B83C707018144A18B95E72A84EFE0BA
:103F7000CFD0186897050000938585F8834707011F
:103F800093E787002308F70010540868EF10A04A51
:103F9000AA84EFE0EFD2E26042642685A264056164
:103FA0008280011122E806EC26E44AE02E84EFE04C
:103FB0004FC209C51C69AA8491C309EC17660100A8
:103FC0001306466793054005176501001305056B49
:103FD000EF3010241C6491E308E41C60138584090D
:103FE00083C50700EF40800785472A89630CF500E9
:103FF0001C601385040983C50700EF40200621C11A
:1040000001493DA01C6C0C6091C703C70500C54762
:10401000E310F7FE2685EFE0DF9F634E05041C707A
:1040200004ECF9D71C6003C70700C547E302F7FC9F
:10403000E2604264A2644A850269056182801C7064
:10404000E1F31C6CE38E97FA1C6891E304E81C60B2
:10405000886883C50700EF0070385DD10C60268545
:10406000EFE03F9B2A89E34505FC0339840104F016
:104070003339200175BF2A8965BF5D7186E4A2E0EE
:1040800026FC19C1AE8489ED17660100130686600F
:104090009305D00C176501001305455EEF305017EE
:1040A0002A842EE402E802EC02F002F4EFE0EFBC16
:1040B00022853000970500009385E5EEEF10A037CC
:1040C0002A84634F0500827781EFA27791EB6265C6
:1040D00001E54265595409C5A685EFE09F932A84FE
:1040E000EFE00FBEA66022850664E2746161828003
:1040F0005D7152F086E4A2E026FC4AF84EF456ECDC
:104100002E8A11C51C692A8999C3DC6389EF2300B3
:104110000A000145A6600664E2744279A279027A37
:10412000E26A61618280086D328401C52C00EFD0A3
:104130004FF38357290405478D8B639BE7020337B1
:104140000917833689031766010013062656A285D0
:104150005285EF40C001AA848337890181C7226557
:10416000EFD02FF31305F4FFE3F6A4FA26855DB72D
:10417000833709018144976A0100938AAA53DC635B
:1041800083B90702A10983B60900F9D6E3F684FCD6
:10419000B305944033059A005686EF30507DA1094F
:1041A000AA94D5B7AA872E8595E797D71F0083B71E
:1041B00067CE99C39C6B99EF4111176601001306F6
:1041C000E64F9305C003176501001305A55006E4EB
:1041D000EF30100483C70701898B99C36F5080307B
:1041E0006F50C017AA872E85B28595E797D71F0015
:1041F00083B747CA99C39C6B99EF411117660100B9
:104200001306C64B9305D003176501001305054E31
:1042100006E4EF30E07F83C70701898B99C36F50B5
:10422000402E6F50E018AA872E8595E797D71F007C
:1042300083B747C699C39C6B99EF4111176601007C
:104240001306C64793059003176501001305854BB8
:1042500006E4EF30E07B83C70701898B99C36F5079
:1042600020246F50C00E011106EC22E85C652E86FA
:1042700097D51F0083B505C289EF176601001306A5
:10428000E6499305D004176501001305A549EF30F1
:104290002078834605041D472A84639EE60403971D
:1042A00027026349E000177601001306269693055E
:1042B0003005D1BF7D372391E7021465186185EA87
:1042C00098E305EB94E723300400233404002334FF
:1042D00004082313C40422852EE4EF006033A26592
:1042E00031C122854264E26005616F60F06898E246
:1042F000C9BF14E7C9BF039707026349E0001776F7
:1043000001001306A69493059005B5BF7D37239051
:10431000E7021465186189E698EB61FF94EF65B7D1
:1043200098E2E5BFE26042640561828009E90D45DB
:1043300082800D45E2604264A264056182800111C1
:1043400022E826E406EC2A84EFE0AF88AA8475D13F
:104350008357250413F7071069FF8D8B0547638E7C
:10436000E700176601001306663D9305D004176544
:1043700001001305253FEF30A069EF00D0460DE5A1
:1043800097D71F0083B707B1639597007D55EF302E
:10439000701C2285FD55EF00E00622854264E26034
:1043A000A26405616F007048014569B7411122E0C0
:1043B00006E42E843479CC45014799CAD0469C62E4
:1043C0006396C5020DEB95E723380506233C0506E9
:1043D00013058402EF00C04C13050401EF00404CAC
:1043E00022850264A26041016F50800B3687BE8631
:1043F000E9B73CF9F1BF89E738FD23300700C9BFB1
:104400001CE3F9B75D71A2E056EC86E426FC4AF89D
:104410004EF452F02A84AE8AEFD0BFFB11C5833927
:1044200005012A89639E0900176601001306863577
:104430009305500C176501001305C535EF30405D3D
:10444000138A09055285EF30C079A28530004E8568
:10445000EF00A00F2A8405C95285EF30607E835794
:10446000290405640D047D8C7D1413341400330479
:104470008040A66022850664E2744279A279027ABD
:10448000E26A61618280A26485474C002385F40062
:1044900023B054052300F918138904014A85EF302D
:1044A000D02B15ED1246635C060293848402052628
:1044B00081452685EF3090224A85EF10A00709E557
:1044C0004C004A85EF307029924763D307006DD5C1
:1044D0002685EF00E0515285EF30807659BFA26506
:1044E00083C79500EDDB4E85EFF05FECEDB7011172
:1044F00026E4AA841305800422E806EC2E84EF50FB
:10450000400108E011CD9C54014681455CC5410540
:10451000EF30D01C1860635705003A85EF405078A3
:10452000594529A89C6823BCE41623300700B87FAE
:10453000146011EBB4FB18600145B8FFE2604264FF
:10454000A2640561828014E3FDB7411106E422E014
:10455000AA8709ED176601001306C6069305B00881
:104560001765010013050525EF30804ABC7B2E85B9
:1045700032841CE01C6095CFD8476317A700014523
:10458000A2600264410182809C63E5B783D6270460
:1045900005670D07758F8546631BD70083C707180E
:1045A00089EFA2850264A26041016FF05FF4594572
:1045B000C1BFEFD01FE2AA8771F90D45D1B7011134
:1045C00022E806EC26E42A8415E9176601001306A2
:1045D00066FF9305E003176501001305A51FEF3083
:1045E00020439C60138584023CF8EF00602B138508
:1045F0000401EF00E02A2685EF40906A2478F5F068
:10460000130504054264E260A26405616F3000583E
:10461000011122E826E406EC97D41F0083B48487B6
:10462000839744042A846357F00203C7C402834774
:10463000C5026371F70297D51F009385A584EF002B
:10464000200685472300F4040145E2604264A26429
:104650000561828097D51F009385C5832285EF0071
:1046600020041DC98397440481E71C54634EF00065
:10467000176601001306061893052006176501004A
:104680001305451AEF30C0388D472300F4041C6031
:1046900009472380E70455BF89472300F40475B711
:1046A0000347C50219EF4111176601001306861969
:1046B0009305A004176501001305451A06E4EF30C1
:1046C00020359C619DCB83C6C70263FAE6009867DC
:1046D00005E31CE12334050088E788E13DA09C63E5
:1046E000D5B7233005001CE588E388E501458280C5
:1046F0001CE118E508E388E7D5BF9C65FDF323308E
:1047000005002334050088E188E50545828017C649
:104710001F0013062678186283174704C1E397C762
:104720001F0083B72776014589458D4891EB97C7D0
:104730001F0023B9077497C71F0023B9077482802D
:1047400003B8070083C6C7020343C7026371D302DD
:10475000146795EE98E323B407001CE72300B70421
:104760001CE22380170505453E87C287C1B7186341
:1047700061FF41111766010013064610930570078B
:10478000176501001305051006E4EF30602898E373
:1047900094E79CE21CE72380B704F9B701458280C7
:1047A0008346050491471B87C6FF63F0E70241116A
:1047B000176601001306060F9305E0031765010055
:1047C0001305C51206E4EF30A02418651C6139EB0F
:1047D00013964600975601009386C63DB2969062A6
:1047E00083C68600A18A99C2546536961CE28DEF75
:1047F0008347050493964700975701009387873BAB
:10480000B697946383C78700A18B99C35C65BE96F6
:1048100098E62330050023340500233405082300DF
:10482000050482801CE3E1B798E7E5B7797126ECCF
:1048300006F422F02EE4814431CD2A840855EFE0BD
:10484000FFBC1C54A2658DC709477337071097D664
:104850001F0083A6662FFD36F58F812797D61F0090
:1048600083B6462F8E07B69723B007007310071044
:104870003C7C81C72285EFC01FB72285EF60D04303
:104880002285EFD06F83AA842285EFF06FC822853E
:10489000EF401041A27002742685E2644561828077
:1048A00019ED411117660100130646069305D00362
:1048B000176501001305050706E4EF3060158357FF
:1048C00005009B9707019BD7074163C507008547F4
:1048D0002310F50001458280797106F422F026EC60
:1048E0004AE84EE452E011C597D71F0083B78724EA
:1048F00089CF17660100130666049305F004176557
:10490000010013052507EF30A01017CA1F00130A76
:104910006A5817D71F0003476723954703340A00D7
:10492000AA8463FCE700EF10400701C91766010085
:104930001306C60593050005D9B70949733909104F
:1049400083D704009B9707019BD707416358F00268
:1049500083D704000145FD379B9707019BD707418B
:104960002390F4002334040873100910A270027419
:10497000E2644269A269026A456182805C6481CB1B
:104980001766010013068604930550078DBF83D771
:104990000400FD379B9707019BD707412390F40044
:1049A0001C5444E4231304046349F0001766010017
:1049B0001306C6039305000A99B785452285EF00C3
:1049C000B0409547AA892300F4049385840022858A
:1049D000EFF01FCD6387090003350A00A285EF6061
:1049E000A079831764040145C1D33B05F040ADBFF6
:1049F000011122E826E406EC2A84F1542285EFF026
:104A0000BFEDE30D95FEE2604264A2640561828021
:104A1000011106EC22E826E44AE009ED17660100E0
:104A20001306C6EE9305F00417650100130585FD16
:104A3000EF20107E8944F3B40410835705002167EA
:104A40007D179B9607019BD60641639CE6007390F9
:104A50000410130550FBE2604264A2640269056120
:104A6000828085279B9707019BD707412310F5007C
:104A7000634BF0022105EF3020352A840DC53C71CF
:104A800017C91F000339094189C713050505EFE060
:104A9000FFAF233404082285EFF09FB709C5CA850C
:104AA0002285EF60606D7390041001456DB7397118
:104AB00022F84AF04EEC06FC26F444652A84086D80
:104AC0002E8997C91F0083B9E93C01C52C00EFC0AE
:104AD0005FD989C883D704009B9707019BD70741FB
:104AE00063CE070017660100130646F393058005A1
:104AF00017650100130505F5EF20907183D70400B9
:104B000085279B9707019BD707412390F4001864E2
:104B10001C6021E39CE4A1E398E81C6C23300400B2
:104B20002334040081C72265EFC0BFD623340408B4
:104B3000231324052285EFF0BFAD09C5CE8522855C
:104B4000EF608063E2704274A2740279E2692161CD
:104B500082801CE3C9B798E7C9B7797106F422F0DF
:104B600026EC09E517C51F000335C532006909ECBD
:104B700017660100130606A59305B0051765010029
:104B80001305C5EDEF20D0680A85EF304045894414
:104B9000F3B40410406C09E873900410A27002741E
:104BA0000265E26445618280834584000A85EF30B6
:104BB000803C0060CDB70DC1411122E02A8401453F
:104BC00006E4EFF09FF99357050208C05CC0A260AD
:104BD00002640145410182807D558280011122E8F5
:104BE00006EC26E42A8401CDAE84EFD01F89406410
:104BF00009C483478402639A9700EFD07F8CE260F8
:104C000022854264A264056182800060D5B74111AB
:104C100006E422E097D71F0083B7C7F18DC317D5ED
:104C20001F001305259DEF30A01615ED0264A2604C
:104C300017D51F001305059D41016F30601509440C
:104C40007334041017D51F001305C59AEF304014B4
:104C50007310041009E913058003EF40B00801C583
:104C600085472308F502A260026441018280034760
:104C70000503AA870DE38946F3B6061017D71F0070
:104C80001307479723300500106315E21CE31CE768
:104C90007390061082808946631ED700F3B6061013
:104CA00017D71F001307079623300500F1BF1067C1
:104CB0001CE2F1BF85476314F7006F40607E82807D
:104CC000011122E826E406EC2A849304050A2685CD
:104CD000EF30000C1DE19304040B2685EF30400BF0
:104CE00005E113050409EF304030130584094264DF
:104CF000E260A26405616F30802EEFF05FF7C1BF04
:104D0000EFF0FFF6D9BF011122E826E406EC2A8471
:104D1000930485082685EF30A00701ED130484096C
:104D20002285EF30E00609E9E2604264A264056191
:104D30008280EF009068F9BFEFD01FB1D5B70111A5
:104D400022E826E406EC97C41F0083B4A4142A8446
:104D500011E180542285EFD0CFE739C9835725046C
:104D600005478D8B639EE70017660100130686D00A
:104D700093051006176501001305C5D2EF205049B1
:104D800003D7240489460D8B6304D7006389D702B7
:104D90009C54639587000145EFE02FDFEF00A024CE
:104DA000814701E922854264E260A2640561B5ACF5
:104DB000F557E2604264A2643E8505618280CD576A
:104DC000CDBF8357250493F70710C9E3011122E8EB
:104DD0002A8426E44AE006EC2E89EF0040070468A6
:104DE0009DE02285EFE0DFF22285EFF07FED835733
:104DF000240493E707102311F404E2604264A264E0
:104E00000269056182808357240405478D8B63887E
:104E1000E700BC6489C71B19890023A0270103C7C9
:104E200014018547E31FF7FA23B40404A3840402A2
:104E30001389040383D704039B9707019BD707417A
:104E4000E3D107FA4A85EFF0BFBCEDB7828041118C
:104E500006E422E02A84EF0020712285EF00E0477B
:104E60002285EF00105022850264A26041016F008C
:104E70008064797106F422F026EC89ED1766010052
:104E80001306C6C39305200917650100130585C3E2
:104E9000EF20103883C70500AA842E8493F70702F9
:104EA00091CBEFD00FD319C55C402328F5081C44E3
:104EB000232AF5088347040013F78700918B85CFD9
:104EC000834714003EC409CF834524003000268563
:104ED000EF0070210145A2700274E2644561828096
:104EE0002C002685EF00A077E34705FE83470400EA
:104EF000A18BEDD3D1BF79DF2C000145EF00501716
:104F0000E5B7397122F826F44AF052E856E45AE03F
:104F100006FC4EEC2A89AE840144094A8D4A054BB1
:104F200099C0635D0400E27022854274A274027924
:104F3000E269426AA26A026B216182809C44638CAE
:104F400047016381570363906707CC444A85EF703C
:104F500060118460F1B79048CC444A85EF70800BB3
:104F60002A84C5BFCC444A85EF70C00FD44890480E
:104F7000938584014A85EF8030282A84E34B05FC21
:104F8000D0446304C502AA854A85EF70A008AA87A9
:104F90006353A00081479B890700A2854A85EF7073
:104FA000600C4E847DB729546DB701445DB7094745
:104FB0008D46054801E51345160082801C4563882F
:104FC000E7006384D700639A07015C4529A05C452C
:104FD0006387B7001C496386B7000861E1BF0545D8
:104FE000828001458280411122E006E42A84EF009C
:104FF000B01E8947F3B70710835624040967758FDD
:105000000DE3034785009376170081CE13674700B1
:105010002304E500739007100545A2600264410176
:105020008280739007100145CDBF011126E406EC84
:1050300022E84AE08944F3B40410EFD08FB915C9CF
:10504000034905042A848145EF0000582300240504
:105050007390041081452285EFF0BFD68355240458
:1050600022854264E260A26402698D8905616FF065
:10507000EFFB73900410E2604264A264026975550C
:105080000561828097C71F0083B7C7E0014581CBC8
:1050900083C607040D4775556393E60088578280E1
:1050A0006FF05FFE79719305802926EC06F422F0FB
:1050B0004AE84EE4AA84EF00E03D3DC92A84EF208F
:1050C000F02913058402C0E0EF205029130484075F
:1050D00023380420233C04208144B1490D491305A1
:1050E00084FDEF20F03B930784041CF41CFC3CE09F
:1050F000B337900013078408850704F018F82305D8
:1051000034092314F4082330040023340400233822
:105110000400233C040085041304040CE39124FDE3
:105120000145A2700274E2644269A269456182800D
:105130005155C5BF797106F422F026EC406109ECA7
:105140001766010013068699930530031765010061
:105150001305459AEF20D00BAA8413058402EF2093
:10516000F02213050405EF20303413050411EF205D
:10517000B0331305041DEF20303323380428833562
:10518000842881ED2285EF207020A2850274A27010
:105190002685E26445616FF00F899C611385850067
:1051A0002EE42334F428EF20303083C70401A265B5
:1051B000898BF1D72685EFF00F87D1B751CD797163
:1051C00026EC06F422F04AE84EE452E0B284A957F5
:1051D00045CA2E8963C6050A2A84368A8949F3B9E5
:1051E00009101C6999C3EFE06FBA04E82334440145
:1051F0008544630409009B04190097D71F00938717
:10520000678F906301EA23300400986339E380E3F9
:1052100080E79DA03285B28601478C4E2D9F635456
:1052200007008C6299E563CCE4028C6291E5999C5D
:10523000D9BF3685AE86D5B7884D299F3685AE86CF
:10524000DDB717D61F001306E68AA285EF20F031DE
:1052500025A0986700E36DBFA9573E8582808C4EDC
:105260000D9F999C3B87954098CEE31CD6FC10E09F
:10527000986311E380E780E304CC739009108147C1
:10528000A2700274E2644269A269026A3E854561C5
:105290008280411122E017D41F001304A4851C60F2
:1052A00006E489CB984F7D3798CF1C6081C79C4F0F
:1052B0006356F000A2600264410182802285EF20E3
:1052C000302D1C6089C7984F144D359F98CF1C69AD
:1052D0002338050008658297C9BF130505056FE0EF
:1052E000EFAA011106EC22E826E409ED17560100A9
:1052F0001306C61D930520041765010013050581DB
:10530000EF2000715C752A84814489EF2334040AFC
:105310002338040AE2604264A26405618280228527
:10532000EFE07FF05C74338797000C63A104E5F92C
:10533000BE852285EFE03FEFD1BF11C199ED41114C
:10534000175601001306067E9305C0051765010078
:105350001305458006E4EF20A06B5475795591CA7A
:1053600001459308D00393173500B6979C638DE3EE
:1053700079558280050785070348070003C60700A3
:10538000E30AC8FE63140800E30516FF0505E1BF44
:105390002E87DDB7011106EC22E826E44AE001C9B8
:1053A000AE8463C605005C792A8463CEF500175687
:1053B00001001306A67B9305000417550100130591
:1053C000E57EEF20E0645C7513993500CA978C6325
:1053D000EFE07FE55C785874FD175CF86393970203
:1053E0004A972330070050784C7405EA2285EFE095
:1053F0009FE32334040AE2604264A2640269056107
:1054000082808E07BA979C634A971CE358785C7435
:105410000E07BA9723B00700F9B705060E062285D6
:10542000EFE05FDC48F461F9175601001306867956
:105430009305100659B7797106F422F026EC4AE874
:105440004EE452E009ED175601001306A617930526
:105450000004175501001305E578EF20605B034455
:105460001501AA842E897D34B2890A04715A631405
:105470004401014501A89C6CCE85A2978843711414
:10548000029975D5A2700274E2644269A269026A47
:1054900045618280011122E806EC2EE4EFE09FD006
:1054A0002A8409C522668145EF30903DE26022855D
:1054B000426405618280411106E4034705049D466C
:1054C0005C656319D70289C703972702634EE00022
:1054D00017560100130606739305A0041755010023
:1054E0001305C574EF20C0527D372391E702A260F7
:1054F00041018280A146E31CD7FE89C703970702BA
:105500006349E000175601001306C6739305400572
:10551000F1B77D372390E702D9BF411106E481E955
:10552000EFF00FCDA2603B05A04041018280EF006B
:10553000C04FCDBF411106E409ED17560100130617
:10554000E63C930570061755010013052572EF2000
:10555000204CEFF0EFCBAA87014563D407003B0551
:10556000F040A26041018280011106EC22E826E4AD
:1055700009ED1756010013066671930500041755CF
:10558000010013052572EF20A0482A848944EFC04A
:10559000DFEE7C6C99E74264E260A26405616FC053
:1055A0003FF2F3B70410686C186178EC2330050003
:1055B0007390071083474502210593E72700230EC8
:1055C000F500EFF03FF7F1B7411106E422E00347A1
:1055D000050493174700174701001307A75D3E977F
:1055E00083478700146313F7870019C35865BA9679
:1055F000186501440DE7918B9DC31C6189EF175617
:1056000001001306A66C930540051755010013050C
:10561000656DEF20E03F0D472380E70405441865E2
:105620001C6115EB9CE295EB98E6233005002334D2
:1056300005002300050497C71F0083B7A78499C7F7
:1056400091C5EFF0CF8C498C1374F40FA2602285C2
:105650000264410182801CE3F9B798E7F9B70111B0
:1056600022E806EC26E4295485C92A84AE84EFC0DA
:10567000DFE017C51F000335E58109C81C556387A6
:1056800087002285EFC0FFD4755409C58C40EF0018
:10569000C0032A84EFC0DFE2E26022854264A26494
:1056A00005618280411122E006E4EFF05FFB2A846D
:1056B000635805003B048040EF20E03800C17D5472
:1056C000A26022850264410182801B87F5FF930757
:1056D000E00F63EDE718397122F826F44EEC06FC72
:1056E0004AF052E856E42A84AE848949F3B9091095
:1056F000834705040947638CE70A0D47639CE7105D
:1057000003390500631E0900175601001306065CE5
:1057100093056008175501001305C55EEF20402F63
:105720008347C90263CEB70417BA1F00130A8A76EB
:10573000833A0A0083974A046357F00497BA1F001C
:10574000938A4A74054A81454A85EFF0FFE709CDFF
:10575000175601001306065D9305A00917550100B1
:105760001305455AEF20C02A4A85D685EFE05FF33E
:1057700023004905033904008347C902E3C5F4FC4B
:105780002306940209A8EF00602511C503350A001D
:10579000D685EF50701E73900910E2704274A274A7
:1057A0000279E269426AA26A01452161828017B9E1
:1057B0001F001309296E033A09008347CA0263D9FF
:1057C000B700EF00A02161D903350900D285D1B718
:1057D0008145EFF07FDF09CD17560100130686548F
:1057E00093056011175501001305C551EF204022A4
:1057F000230694022285EFE0BFE151DD1756010038
:105800001306465293052012175501001305854FC4
:10581000EF2000209B8607001747010013078739F8
:105820009207BA978C6383C78700A18B99C35C6585
:10583000BE95939746003E978347870093F4F40FF5
:10584000858B9DDF18641C6011EF9CE191EF98E55A
:105850002330040023340400230694022285EFE061
:105860003FE415BF1CE3DDB798E7DDB7295582801B
:10587000011126E406EC22E8A95499CDAA842E84CD
:1058800097B71F0083B7076101C59857631CA7002E
:1058900083C7C70281441CC0E26042642685A264BB
:1058A00005618280EFC07FBD2685EFC09FB2F554B1
:1058B00009C58347C50281441CC0EFC07FC0E9BF52
:1058C000411122E006E4EFF0BFFA2A846358050094
:1058D0003B048040EF20201700C17D54A260228548
:1058E000026441018280797126EC06F422F04AE8D4
:1058F0004EE48947A95463EFB7041C421307E00F35
:10590000B289FD37A9546367F7042E8919E1EFF0D6
:105910006FF7EFC01FAC2A84F5540DCDEFC0FFB573
:1059200009477337071083572404137919009D9B87
:10593000C217C1932311F40463060902232404044B
:105940007310071083A509002285EFF01FD8AA84E1
:10595000EFC01FB7A27002744269A2692685E26493
:105960004561828093E787002311F4049307800C3C
:105970003CC4F9B7411122E006E4EFF0DFF62A84D7
:10598000635805003B048040EF20E00B00C17D54CC
:10599000A260228502644101828097B71F0083B70D
:1059A000674F9DE717C71F000347471A85470545FF
:1059B00063F3E702411117560100130626389305D9
:1059C0001004175501001305E53A06E4EF204004E2
:1059D0008857132515008280287D828001114AE0B6
:1059E0002E89814506EC22E826E4AA84EFF0DFBD8B
:1059F0002A84238624032685EFE09FC1B344A400B4
:105A000093F4F40F6309A40097B71F0083B7874787
:105A100099C3EFE0DFCFE260426402692685A264A9
:105A2000056182802E86814521A02E868145C9A8E8
:105A30001D7186ECA2E8A6E4CAE04EFC52F856F4CA
:105A400019C1B28409EE17560100130626349305D6
:105A500030061755010013056536EF10707B97C7A8
:105A60001F0083B7270D81CB175601001306063799
:105A700093054006F9BFAA89AE8A17B91F000339FA
:105A80006941094A733A0A10EF00A0382A8405C513
:105A90009864B7D79A3B9387F79F295463EDE70043
:105AA0007008A6855685EF00403015E1F2451304D5
:105AB00020F96341B00273100A10E6602285466443
:105AC000A6640669E279427AA27A256182803B0463
:105AD000A040D5B72EE4EFF0EFDAA265130909056F
